{
	"data": {
		"bytecode": {
			"linkReferences": {},
			"object": "608060408190526103e86011556611c37937e080006012556014601381905560649055601680546001600160a01b03191673fdf9851ee0f375f513098da24b9f60629ec5762417905567016345785d8a00006017556018805463ffffffff1916620100001790556000601955620037ef388190039081908339810160408190526200008a916200052e565b8282620000973362000217565b620000a96301ffc9a760e01b62000267565b8151620000be906006906020850190620003d5565b508051620000d4906007906020840190620003d5565b5060006004555050600d805460ff191690556017543410156200013e5760405162461bcd60e51b815260206004820152601d60248201527f4552524f523a206d75737420706179207265717569726564206665657300000060448201526064015b60405180910390fd5b6200014933620002eb565b601580546001600160a01b031916331790556200016681620003bc565b6016546040516000916001600160a01b03169034908381818185875af1925050503d8060008114620001b5576040519150601f19603f3d011682016040523d82523d6000602084013e620001ba565b606091505b50509050806200020d5760405162461bcd60e51b815260206004820152601c60248201527f416464726573733a20756e61626c6520746f207061792061646d696e00000000604482015260640162000135565b505050506200060e565b600080546001600160a01b038381166001600160a01b0319831681178455604051919092169283917f8be0079c531659141344cd1fd0a4f28419497f9722a3daafe3b4186f6b6457e09190a35050565b6001600160e01b03198082161415620002c35760405162461bcd60e51b815260206004820152601c60248201527f4552433136353a20696e76616c696420696e7465726661636520696400000000604482015260640162000135565b6001600160e01b0319166000908152600160208190526040909120805460ff19169091179055565b6000546001600160a01b03163314620003475760405162461bcd60e51b815260206004820181905260248201527f4f776e61626c653a2063616c6c6572206973206e6f7420746865206f776e6572604482015260640162000135565b6001600160a01b038116620003ae5760405162461bcd60e51b815260206004820152602660248201527f4f776e61626c653a206e6577206f776e657220697320746865207a65726f206160448201526564647265737360d01b606482015260840162000135565b620003b98162000217565b50565b8051620003d1906008906020840190620003d5565b5050565b828054620003e390620005bb565b90600052602060002090601f01602090048101928262000407576000855562000452565b82601f106200042257805160ff191683800117855562000452565b8280016001018555821562000452579182015b828111156200045257825182559160200191906001019062000435565b506200046092915062000464565b5090565b5b8082111562000460576000815560010162000465565b600082601f8301126200048c578081fd5b81516001600160401b0380821115620004a957620004a9620005f8565b604051601f8301601f19908116603f01168101908282118183101715620004d457620004d4620005f8565b81604052838152602092508683858801011115620004f0578485fd5b8491505b83821015620005135785820183015181830184015290820190620004f4565b838211156200052457848385830101525b9695505050505050565b60008060006060848603121562000543578283fd5b83516001600160401b03808211156200055a578485fd5b62000568878388016200047b565b945060208601519150808211156200057e578384fd5b6200058c878388016200047b565b93506040860151915080821115620005a2578283fd5b50620005b1868287016200047b565b9150509250925092565b600181811c90821680620005d057607f821691505b60208210811415620005f257634e487b7160e01b600052602260045260246000fd5b50919050565b634e487b7160e01b600052604160045260246000fd5b6131d1806200061e6000396000f3fe60806040526004361061036b5760003560e01c8063715018a6116101c6578063c28b8dbd116100f7578063e268e4d311610095578063ebf0c7171161006f578063ebf0c7171461099f578063f2cff57f146109b5578063f2fde38b146109cb578063f851a440146109eb57600080fd5b8063e268e4d31461094a578063e8a3d4851461096a578063e985e9c51461097f57600080fd5b8063d111515d116100d1578063d111515d146108d6578063d3fc9864146108f7578063d68fb0ed1461090a578063dab5f3401461092a57600080fd5b8063c28b8dbd14610877578063c87b56dd14610896578063ccfdd2f8146108b657600080fd5b8063a22cb46511610164578063b7ed82b11161013e578063b7ed82b114610802578063b88d4fde14610817578063bd8aa78014610837578063bf24c0de1461085757600080fd5b8063a22cb465146107ac578063a8958c70146107cc578063a92ba3c7146107ec57600080fd5b80638da5cb5b116101a05780638da5cb5b1461073957806395d89b411461075757806398eef4b71461076c5780639fd6db121461078c57600080fd5b8063715018a6146106fc57806377097fc8146107115780637a5caab31461072457600080fd5b806342842e0e116102a05780636352211e1161023e5780636bbc4291116102185780636bbc4291146106925780636c0360eb146106a7578063704b6c02146106bc57806370a08231146106dc57600080fd5b80636352211e1461063c57806364e39b871461065c5780636605ff661461067c57600080fd5b8063548db1741161027a578063548db174146105ca5780635b0c29eb146105ea5780635c975abb146106045780636082adf81461061c57600080fd5b806342842e0e146105825780634fdc45d9146105a2578063539d5c87146105b557600080fd5b8063150b7a021161030d57806320234ac7116102e757806320234ac71461050d57806321775c92146105225780632194f3a21461054257806323b872dd1461056257600080fd5b8063150b7a021461048157806318160ddd146104ba5780631e7be210146104dd57600080fd5b806306fdde031161034957806306fdde03146103e7578063081812fc14610409578063095ea7b31461044157806313af40351461046157600080fd5b806301ffc9a71461037057806302fe5305146103a557806305e2b0c3146103c7575b600080fd5b34801561037c57600080fd5b5061039061038b366004612ce1565b610a0b565b60405190151581526020015b60405180910390f35b3480156103b157600080fd5b506103c56103c0366004612d19565b610a66565b005b3480156103d357600080fd5b506103c56103e2366004612cb1565b610b82565b3480156103f357600080fd5b506103fc610bcf565b60405161039c9190612f24565b34801561041557600080fd5b50610429610424366004612cb1565b610c61565b6040516001600160a01b03909116815260200161039c565b34801561044d57600080fd5b506103c561045c366004612b22565b610ca5565b34801561046d57600080fd5b506103c561047c3660046129fa565b610d33565b34801561048d57600080fd5b506104a161049c366004612a81565b610d7e565b6040516001600160e01b0319909116815260200161039c565b3480156104c657600080fd5b50600554600454035b60405190815260200161039c565b3480156104e957600080fd5b506103906104f83660046129fa565b60026020526000908152604090205460ff1681565b34801561051957600080fd5b506013546104cf565b34801561052e57600080fd5b506103c561053d366004612c97565b610dcf565b34801561054e57600080fd5b50601554610429906001600160a01b031681565b34801561056e57600080fd5b506103c561057d366004612a46565b610e71565b34801561058e57600080fd5b506103c561059d366004612a46565b610e7c565b6103c56105b0366004612d4b565b610e97565b3480156105c157600080fd5b506103c5610f57565b3480156105d657600080fd5b506103c56105e5366004612b9f565b611010565b3480156105f657600080fd5b506018546103909060ff1681565b34801561061057600080fd5b50600d5460ff16610390565b34801561062857600080fd5b506103c5610637366004612c97565b61112b565b34801561064857600080fd5b50610429610657366004612cb1565b611186565b34801561066857600080fd5b506103c56106773660046129fa565b611198565b34801561068857600080fd5b506104cf600f5481565b34801561069e57600080fd5b506014546104cf565b3480156106b357600080fd5b506103fc6111f9565b3480156106c857600080fd5b506103c56106d73660046129fa565b611208565b3480156106e857600080fd5b506104cf6106f73660046129fa565b611272565b34801561070857600080fd5b506103c56112c0565b6103c561071f366004612de2565b611326565b34801561073057600080fd5b506012546104cf565b34801561074557600080fd5b506000546001600160a01b0316610429565b34801561076357600080fd5b506103fc611331565b34801561077857600080fd5b506103c5610787366004612b9f565b611340565b34801561079857600080fd5b506018546103909062010000900460ff1681565b3480156107b857600080fd5b506103c56107c7366004612af9565b61144f565b3480156107d857600080fd5b506103c56107e7366004612c97565b6114e5565b3480156107f857600080fd5b506104cf60105481565b34801561080e57600080fd5b506011546104cf565b34801561082357600080fd5b506103c5610832366004612a81565b611547565b34801561084357600080fd5b506103c5610852366004612b9f565b61159d565b34801561086357600080fd5b506103fc610872366004612cb1565b6116b3565b34801561088357600080fd5b5060185461039090610100900460ff1681565b3480156108a257600080fd5b506103fc6108b1366004612cb1565b61174d565b3480156108c257600080fd5b506103c56108d1366004612cb1565b6117d2565b3480156108e257600080fd5b50601854610390906301000000900460ff1681565b6103c5610905366004612b4b565b61181f565b34801561091657600080fd5b50610390610925366004612c38565b61182a565b34801561093657600080fd5b506103c5610945366004612cb1565b6119a0565b34801561095657600080fd5b506103c5610965366004612cb1565b6119ed565b34801561097657600080fd5b506103fc611a31565b34801561098b57600080fd5b5061039061099a366004612a14565b611a5f565b3480156109ab57600080fd5b506104cf600e5481565b3480156109c157600080fd5b506104cf60175481565b3480156109d757600080fd5b506103c56109e63660046129fa565b611a8d565b3480156109f757600080fd5b50601654610429906001600160a01b031681565b60006001600160e01b031982166380ac58cd60e01b1480610a3c57506001600160e01b03198216635b5e139f60e01b145b80610a6057506001600160e01b0319821660009081526001602052604090205460ff165b92915050565b6000546001600160a01b0316331480610a8957506016546001600160a01b031633145b610aae5760405162461bcd60e51b8152600401610aa590612fb2565b60405180910390fd5b6018546301000000900460ff1615610afc5760405162461bcd60e51b81526020600482015260116024820152704d657461646174612066726f7a656e202160781b6044820152606401610aa5565b600260195410610b5e5760405162461bcd60e51b815260206004820152602760248201527f596f752063616e6e6f74206d616b65206d6f7265207468616e2074687265652060448201526672657665616c7360c81b6064820152608401610aa5565b610b6781611b55565b600160196000828254610b7a919061304b565b909155505050565b6016546001600160a01b0316336001600160a01b03161480610bae57506000546001600160a01b031633145b610bca5760405162461bcd60e51b8152600401610aa590612f85565b601255565b606060068054610bde906130d9565b80601f0160208091040260200160405190810160405280929190818152602001828054610c0a906130d9565b8015610c575780601f10610c2c57610100808354040283529160200191610c57565b820191906000526020600020905b815481529060010190602001808311610c3a57829003601f168201915b5050505050905090565b6000610c6c82611b68565b610c89576040516333d1c03960e21b815260040160405180910390fd5b506000908152600b60205260409020546001600160a01b031690565b6000610cb082611186565b9050806001600160a01b0316836001600160a01b03161415610ce55760405163250fdee360e21b815260040160405180910390fd5b336001600160a01b03821614801590610d055750610d038133611a5f565b155b15610d23576040516367d9dca160e11b815260040160405180910390fd5b610d2e838383611b94565b505050565b6000546001600160a01b0316331480610d5657506016546001600160a01b031633145b610d725760405162461bcd60e51b8152600401610aa590612fb2565b610d7b81611a8d565b50565b60007fa05d90f300156ad1b545bc5d8197024456f21d22a708f5af04dd293e3d60525185858585604051610db59493929190612ee7565b60405180910390a150630a85bd0160e11b5b949350505050565b6000546001600160a01b0316331480610df257506016546001600160a01b031633145b610e555760405162461bcd60e51b815260206004820152602e60248201527f4e6f6e46756e6769626c65546f6b656e3a206d75737420686176652061646d6960448201526d1b881c9bdb19481d1bc81b5a5b9d60921b6064820152608401610aa5565b60188054911515620100000262ff000019909216919091179055565b610d2e838383611bf0565b610d2e83838360405180602001604052806000815250611547565b601854610100900460ff16610eee5760405162461bcd60e51b815260206004820181905260248201527f4552524f523a2021676173467257686974656c697374696e67456e61626c65646044820152606401610aa5565b610ef983858461182a565b610f455760405162461bcd60e51b815260206004820152601760248201527f4e6f7420476173467265652077686974656c69737465640000000000000000006044820152606401610aa5565b610f50338683611ddb565b5050505050565b6000546001600160a01b0316331480610f7a57506016546001600160a01b031633145b610f965760405162461bcd60e51b8152600401610aa590612f37565b6018546301000000900460ff1615610ffb5760405162461bcd60e51b815260206004820152602260248201527f4e6f6e46756e6769626c65546f6b656e3a20616c72656164792066726f7a656e604482015261202160f01b6064820152608401610aa5565b6018805463ff00000019166301000000179055565b6000546001600160a01b031633148061103357506016546001600160a01b031633145b61104f5760405162461bcd60e51b8152600401610aa590612fb2565b60005b8151811015611127576002600083838151811061107f57634e487b7160e01b600052603260045260246000fd5b6020908102919091018101516001600160a01b031682528101919091526040016000205460ff16156110bd576010546110b990600161213d565b6010555b6000600260008484815181106110e357634e487b7160e01b600052603260045260246000fd5b6020908102919091018101516001600160a01b03168252810191909152604001600020805460ff19169115159190911790558061111f81613114565b915050611052565b5050565b6016546001600160a01b0316336001600160a01b0316148061115757506000546001600160a01b031633145b6111735760405162461bcd60e51b8152600401610aa590612f85565b6018805460ff1916911515919091179055565b60006111918261217f565b5192915050565b6000546001600160a01b03163314806111bb57506016546001600160a01b031633145b6111d75760405162461bcd60e51b8152600401610aa590612fb2565b601580546001600160a01b0319166001600160a01b0392909216919091179055565b606060088054610bde906130d9565b6016546001600160a01b0316336001600160a01b0316148061123457506000546001600160a01b031633145b6112505760405162461bcd60e51b8152600401610aa590612f85565b601680546001600160a01b0319166001600160a01b0392909216919091179055565b60006001600160a01b03821661129b576040516323d3ad8160e21b815260040160405180910390fd5b506001600160a01b03166000908152600a60205260409020546001600160401b031690565b6000546001600160a01b0316331461131a5760405162461bcd60e51b815260206004820181905260248201527f4f776e61626c653a2063616c6c6572206973206e6f7420746865206f776e65726044820152606401610aa5565b6113246000612299565b565b611127338383611ddb565b606060078054610bde906130d9565b6000546001600160a01b031633148061136357506016546001600160a01b031633145b6113af5760405162461bcd60e51b815260206004820152601b60248201527f4552524f523a206d75737420686176652061646d696e20726f6c6500000000006044820152606401610aa5565b60185462010000900460ff166113ff5760405162461bcd60e51b81526020600482015260156024820152744d696e74696e67206e6f7420656e61626c6564202160581b6044820152606401610aa5565b60005b81518110156111275761143d82828151811061142e57634e487b7160e01b600052603260045260246000fd5b602002602001015160016122e9565b8061144781613114565b915050611402565b6001600160a01b0382163314156114795760405163b06307db60e01b815260040160405180910390fd5b336000818152600c602090815260408083206001600160a01b03871680855290835292819020805460ff191686151590811790915590519081529192917f17307eab39ab6107e8899845ad3d59bd9653f200f220920489ca2b5937696c31910160405180910390a35050565b6016546001600160a01b0316336001600160a01b0316148061151157506000546001600160a01b031633145b61152d5760405162461bcd60e51b8152600401610aa590612f85565b601880549115156101000261ff0019909216919091179055565b611552848484611bf0565b611564836001600160a01b0316612303565b801561157957506115778484848461233a565b155b15611597576040516368d2bf6b60e11b815260040160405180910390fd5b50505050565b6000546001600160a01b03163314806115c057506016546001600160a01b031633145b6115dc5760405162461bcd60e51b8152600401610aa590612fb2565b60005b8151811015611127576002600083838151811061160c57634e487b7160e01b600052603260045260246000fd5b6020908102919091018101516001600160a01b031682528101919091526040016000205460ff166116495760105461164590600161304b565b6010555b60016002600084848151811061166f57634e487b7160e01b600052603260045260246000fd5b6020908102919091018101516001600160a01b03168252810191909152604001600020805460ff1916911515919091179055806116ab81613114565b9150506115df565b600360205260009081526040902080546116cc906130d9565b80601f01602080910402602001604051908101604052809291908181526020018280546116f8906130d9565b80156117455780601f1061171a57610100808354040283529160200191611745565b820191906000526020600020905b81548152906001019060200180831161172857829003601f168201915b505050505081565b606061175882611b68565b61177557604051630a14c4b560e41b815260040160405180910390fd5b600061177f6111f9565b90508051600014156117a057604051806020016040528060008152506117cb565b806117aa8461242e565b6040516020016117bb929190612e6e565b6040516020818303038152906040525b9392505050565b6016546001600160a01b0316336001600160a01b031614806117fe57506000546001600160a01b031633145b61181a5760405162461bcd60e51b8152600401610aa590612f85565b601355565b610d2e838383611ddb565b600082815b855181101561199357600086828151811061185a57634e487b7160e01b600052603260045260246000fd5b6020026020010151905084828151811061188457634e487b7160e01b600052603260045260246000fd5b60200260200101516001141561190c57604080516020810185905290810182905260029060600160408051601f19818403018152908290526118c591612e52565b602060405180830381855afa1580156118e2573d6000803e3d6000fd5b5050506040513d601f19601f820116820180604052508101906119059190612cc9565b9250611980565b604080516020810183905290810184905260029060600160408051601f198184030181529082905261193d91612e52565b602060405180830381855afa15801561195a573d6000803e3d6000fd5b5050506040513d601f19601f8201168201806040525081019061197d9190612cc9565b92505b508061198b81613114565b91505061182f565b50600e5414949350505050565b6016546001600160a01b0316336001600160a01b031614806119cc57506000546001600160a01b031633145b6119e85760405162461bcd60e51b8152600401610aa590612f85565b600e55565b6000546001600160a01b0316331480611a1057506016546001600160a01b031633145b611a2c5760405162461bcd60e51b8152600401610aa590612f37565b601455565b6060611a3b6111f9565b604051602001611a4b9190612ead565b604051602081830303815290604052905090565b6001600160a01b039182166000908152600c6020908152604080832093909416825291909152205460ff1690565b6000546001600160a01b03163314611ae75760405162461bcd60e51b815260206004820181905260248201527f4f776e61626c653a2063616c6c6572206973206e6f7420746865206f776e65726044820152606401610aa5565b6001600160a01b038116611b4c5760405162461bcd60e51b815260206004820152602660248201527f4f776e61626c653a206e6577206f776e657220697320746865207a65726f206160448201526564647265737360d01b6064820152608401610aa5565b610d7b81612299565b8051611127906008906020840190612850565b600060045482108015610a60575050600090815260096020526040902054600160e01b900460ff161590565b6000828152600b602052604080822080546001600160a01b0319166001600160a01b0387811691821790925591518593918516917f8c5be1e5ebec7d5bd14f71427d1e84f3dd0314c0f7b2291e5b200ac8c7c3b92591a4505050565b6000611bfb8261217f565b9050836001600160a01b031681600001516001600160a01b031614611c325760405162a1148160e81b815260040160405180910390fd5b6000336001600160a01b0386161480611c505750611c508533611a5f565b80611c6b575033611c6084610c61565b6001600160a01b0316145b905080611c8b57604051632ce44b5f60e11b815260040160405180910390fd5b6001600160a01b038416611cb257604051633a954ecd60e21b815260040160405180910390fd5b611cbe60008487611b94565b6001600160a01b038581166000908152600a60209081526040808320805467ffffffffffffffff198082166001600160401b0392831660001901831617909255898616808652838620805493841693831660019081018416949094179055898652600990945282852080546001600160e01b031916909417600160a01b42909216919091021783558701808452922080549193909116611d92576004548214611d9257805460208601516001600160401b0316600160a01b026001600160e01b03199091166001600160a01b038a16171781555b50505082846001600160a01b0316866001600160a01b03167fddf252ad1be2c89b69c2b068fc378daa952ba7f163c4a11628f55a4df523b3ef60405160405180910390a4610f50565b6001600160a01b03831660009081526002602052604090205460ff1680611e05575060185460ff16155b611e4a5760405162461bcd60e51b815260206004820152601660248201527555736572206e6f742077686974656c6973746564202160501b6044820152606401610aa5565b60185462010000900460ff16611e9a5760405162461bcd60e51b81526020600482015260156024820152744d696e74696e67206e6f7420656e61626c6564202160581b6044820152606401610aa5565b601354821115611eec5760405162461bcd60e51b815260206004820152601960248201527f6d61785065725472616e73616374696f6e2072656163686564000000000000006044820152606401610aa5565b6000611efb6005546004540390565b9050611f0660115490565b611f108285612547565b1115611f535760405162461bcd60e51b815260206004820152601260248201527113585e081cdd5c1c1b1e481c995858da195960721b6044820152606401610aa5565b6000611f5e85611272565b9050611f6960145490565b611f738286612547565b1115611fc15760405162461bcd60e51b815260206004820152601a60248201527f4d6178204e46547320726561636865642062792077616c6c65740000000000006044820152606401610aa5565b611fd484611fce60125490565b906125a6565b3410156120175760405162461bcd60e51b8152602060048201526011602482015270496e73756666696369656e74206665657360781b6044820152606401610aa5565b6015546040516000916001600160a01b03169034908381818185875af1925050503d8060008114612064576040519150601f19603f3d011682016040523d82523d6000602084013e612069565b606091505b50509050806120e05760405162461bcd60e51b815260206004820152603a60248201527f416464726573733a20756e61626c6520746f2073656e642076616c75652c207260448201527f6563697069656e74206d617920686176652072657665727465640000000000006064820152608401610aa5565b600f546120ed9034612547565b600f556120fb8660016122e9565b612105601a612625565b8360036000612113601a5490565b81526020019081526020016000209080519060200190612134929190612850565b50505050505050565b60006117cb83836040518060400160405280601e81526020017f536166654d6174683a207375627472616374696f6e206f766572666c6f77000081525061263a565b60408051606081018252600080825260208201819052918101919091528160045481101561228057600081815260096020908152604091829020825160608101845290546001600160a01b0381168252600160a01b81046001600160401b031692820192909252600160e01b90910460ff1615159181018290529061227e5780516001600160a01b031615612215579392505050565b5060001901600081815260096020908152604091829020825160608101845290546001600160a01b038116808352600160a01b82046001600160401b031693830193909352600160e01b900460ff1615159281019290925215612279579392505050565b612215565b505b604051636f96cda160e11b815260040160405180910390fd5b600080546001600160a01b038381166001600160a01b0319831681178455604051919092169283917f8be0079c531659141344cd1fd0a4f28419497f9722a3daafe3b4186f6b6457e09190a35050565b611127828260405180602001604052806000815250612674565b6000813f7fc5d2460186f7233c927e7db2dcc703c0e500b653ca82273b7bfad8045d85a4708115801590610dc75750141592915050565b604051630a85bd0160e11b81526000906001600160a01b0385169063150b7a029061236f903390899088908890600401612ee7565b602060405180830381600087803b15801561238957600080fd5b505af19250505080156123b9575060408051601f3d908101601f191682019092526123b691810190612cfd565b60015b612414573d8080156123e7576040519150601f19603f3d011682016040523d82523d6000602084013e6123ec565b606091505b50805161240c576040516368d2bf6b60e11b815260040160405180910390fd5b805181602001fd5b6001600160e01b031916630a85bd0160e11b149050610dc7565b6060816124525750506040805180820190915260018152600360fc1b602082015290565b8160005b811561247c578061246681613114565b91506124759050600a83613063565b9150612456565b6000816001600160401b038111156124a457634e487b7160e01b600052604160045260246000fd5b6040519080825280601f01601f1916602001820160405280156124ce576020820181803683370190505b5090505b8415610dc7576124e3600183613096565b91506124f0600a8661312f565b6124fb90603061304b565b60f81b81838151811061251e57634e487b7160e01b600052603260045260246000fd5b60200101906001600160f81b031916908160001a905350612540600a86613063565b94506124d2565b600080612554838561304b565b9050838110156117cb5760405162461bcd60e51b815260206004820152601b60248201527f536166654d6174683a206164646974696f6e206f766572666c6f7700000000006044820152606401610aa5565b6000826125b557506000610a60565b60006125c18385613077565b9050826125ce8583613063565b146117cb5760405162461bcd60e51b815260206004820152602160248201527f536166654d6174683a206d756c7469706c69636174696f6e206f766572666c6f6044820152607760f81b6064820152608401610aa5565b6001816000016000828254610b7a919061304b565b6000818484111561265e5760405162461bcd60e51b8152600401610aa59190612f24565b50600061266b8486613096565b95945050505050565b610d2e83838360016004546001600160a01b0385166126a557604051622e076360e81b815260040160405180910390fd5b836126c35760405163b562e8dd60e01b815260040160405180910390fd5b6001600160a01b0385166000818152600a6020908152604080832080546fffffffffffffffffffffffffffffffff1981166001600160401b038083168c0181169182176801000000000000000067ffffffffffffffff1990941690921783900481168c01811690920217909155858452600990925290912080546001600160e01b031916909217600160a01b4290921691909102179055808085018380156127785750612778876001600160a01b0316612303565b15612801575b60405182906001600160a01b038916906000907fddf252ad1be2c89b69c2b068fc378daa952ba7f163c4a11628f55a4df523b3ef908290a46127c9600088848060010195508861233a565b6127e6576040516368d2bf6b60e11b815260040160405180910390fd5b8082141561277e5782600454146127fc57600080fd5b612847565b5b6040516001830192906001600160a01b038916906000907fddf252ad1be2c89b69c2b068fc378daa952ba7f163c4a11628f55a4df523b3ef908290a480821415612802575b50600455610f50565b82805461285c906130d9565b90600052602060002090601f01602090048101928261287e57600085556128c4565b82601f1061289757805160ff19168380011785556128c4565b828001600101855582156128c4579182015b828111156128c45782518255916020019190600101906128a9565b506128d09291506128d4565b5090565b5b808211156128d057600081556001016128d5565b60006001600160401b038311156129025761290261316f565b612915601f8401601f1916602001612ff8565b905082815283838301111561292957600080fd5b828260208301376000602084830101529392505050565b80356001600160a01b038116811461295757600080fd5b919050565b600082601f83011261296c578081fd5b8135602061298161297c83613028565b612ff8565b80838252828201915082860187848660051b89010111156129a0578586fd5b855b858110156129be578135845292840192908401906001016129a2565b5090979650505050505050565b8035801515811461295757600080fd5b600082601f8301126129eb578081fd5b6117cb838335602085016128e9565b600060208284031215612a0b578081fd5b6117cb82612940565b60008060408385031215612a26578081fd5b612a2f83612940565b9150612a3d60208401612940565b90509250929050565b600080600060608486031215612a5a578081fd5b612a6384612940565b9250612a7160208501612940565b9150604084013590509250925092565b60008060008060808587031215612a96578081fd5b612a9f85612940565b9350612aad60208601612940565b92506040850135915060608501356001600160401b03811115612ace578182fd5b8501601f81018713612ade578182fd5b612aed878235602084016128e9565b91505092959194509250565b60008060408385031215612b0b578182fd5b612b1483612940565b9150612a3d602084016129cb565b60008060408385031215612b34578182fd5b612b3d83612940565b946020939093013593505050565b600080600060608486031215612b5f578081fd5b612b6884612940565b92506020840135915060408401356001600160401b03811115612b89578182fd5b612b95868287016129db565b9150509250925092565b60006020808385031215612bb1578182fd5b82356001600160401b03811115612bc6578283fd5b8301601f81018513612bd6578283fd5b8035612be461297c82613028565b80828252848201915084840188868560051b8701011115612c03578687fd5b8694505b83851015612c2c57612c1881612940565b835260019490940193918501918501612c07565b50979650505050505050565b600080600060608486031215612c4c578081fd5b83356001600160401b0380821115612c62578283fd5b612c6e8783880161295c565b9450602086013593506040860135915080821115612c8a578283fd5b50612b958682870161295c565b600060208284031215612ca8578081fd5b6117cb826129cb565b600060208284031215612cc2578081fd5b5035919050565b600060208284031215612cda578081fd5b5051919050565b600060208284031215612cf2578081fd5b81356117cb81613185565b600060208284031215612d0e578081fd5b81516117cb81613185565b600060208284031215612d2a578081fd5b81356001600160401b03811115612d3f578182fd5b610dc7848285016129db565b600080600080600060a08688031215612d62578283fd5b853594506020860135935060408601356001600160401b0380821115612d86578485fd5b612d9289838a0161295c565b94506060880135915080821115612da7578283fd5b612db389838a0161295c565b93506080880135915080821115612dc8578283fd5b50612dd5888289016129db565b9150509295509295909350565b60008060408385031215612df4578182fd5b8235915060208301356001600160401b03811115612e10578182fd5b612e1c858286016129db565b9150509250929050565b60008151808452612e3e8160208601602086016130ad565b601f01601f19169290920160200192915050565b60008251612e648184602087016130ad565b9190910192915050565b60008351612e808184602088016130ad565b835190830190612e948183602088016130ad565b64173539b7b760d91b9101908152600501949350505050565b60008251612ebf8184602087016130ad565b7531b7b73a3930b1ba16b6b2ba30b230ba30973539b7b760511b920191825250601601919050565b6001600160a01b0385811682528416602082015260408101839052608060608201819052600090612f1a90830184612e26565b9695505050505050565b6020815260006117cb6020830184612e26565b6020808252602e908201527f4e6f6e46756e6769626c65546f6b656e3a206d7573742068617665204445464160408201526d554c545f41444d494e5f524f4c4560901b606082015260800190565b60208082526013908201527227b7363c9030b236b4b71037b91037bbb732b960691b604082015260600190565b60208082526026908201527f4e6f6e46756e6769626c65546f6b656e3a206d75737420686176652061646d696040820152656e20726f6c6560d01b606082015260800190565b604051601f8201601f191681016001600160401b03811182821017156130205761302061316f565b604052919050565b60006001600160401b038211156130415761304161316f565b5060051b60200190565b6000821982111561305e5761305e613143565b500190565b60008261307257613072613159565b500490565b600081600019048311821515161561309157613091613143565b500290565b6000828210156130a8576130a8613143565b500390565b60005b838110156130c85781810151838201526020016130b0565b838111156115975750506000910152565b600181811c908216806130ed57607f821691505b6020821081141561310e57634e487b7160e01b600052602260045260246000fd5b50919050565b600060001982141561312857613128613143565b5060010190565b60008261313e5761313e613159565b500690565b634e487b7160e01b600052601160045260246000fd5b634e487b7160e01b600052601260045260246000fd5b634e487b7160e01b600052604160045260246000fd5b6001600160e01b031981168114610d7b57600080fdfea2646970667358221220df990ffb1b154d1a07a0e44bdc9617dfcc79e54a47e3878b1d62dca51fe7577764736f6c63430008040033",
			"opcodes": "PUSH1 0x80 PUSH1 0x40 DUP2 SWAP1 MSTORE PUSH2 0x3E8 PUSH1 0x11 SSTORE PUSH7 0x11C37937E08000 PUSH1 0x12 SSTORE PUSH1 0x14 PUSH1 0x13 DUP2 SWAP1 SSTORE PUSH1 0x64 SWAP1 SSTORE PUSH1 0x16 DUP1 SLOAD PUSH1 0x1 PUSH1 0x1 PUSH1 0xA0 SHL SUB NOT AND PUSH20 0xFDF9851EE0F375F513098DA24B9F60629EC57624 OR SWAP1 SSTORE PUSH8 0x16345785D8A0000 PUSH1 0x17 SSTORE PUSH1 0x18 DUP1 SLOAD PUSH4 0xFFFFFFFF NOT AND PUSH3 0x10000 OR SWAP1 SSTORE PUSH1 0x0 PUSH1 0x19 SSTORE PUSH3 0x37EF CODESIZE DUP2 SWAP1 SUB SWAP1 DUP2 SWAP1 DUP4 CODECOPY DUP2 ADD PUSH1 0x40 DUP2 SWAP1 MSTORE PUSH3 0x8A SWAP2 PUSH3 0x52E JUMP JUMPDEST DUP3 DUP3 PUSH3 0x97 CALLER PUSH3 0x217 JUMP JUMPDEST PUSH3 0xA9 PUSH4 0x1FFC9A7 PUSH1 0xE0 SHL PUSH3 0x267 JUMP JUMPDEST DUP2 MLOAD PUSH3 0xBE SWAP1 PUSH1 0x6 SWAP1 PUSH1 0x20 DUP6 ADD SWAP1 PUSH3 0x3D5 JUMP JUMPDEST POP DUP1 MLOAD PUSH3 0xD4 SWAP1 PUSH1 0x7 SWAP1 PUSH1 0x20 DUP5 ADD SWAP1 PUSH3 0x3D5 JUMP JUMPDEST POP PUSH1 0x0 PUSH1 0x4 SSTORE POP POP PUSH1 0xD DUP1 SLOAD PUSH1 0xFF NOT AND SWAP1 SSTORE PUSH1 0x17 SLOAD CALLVALUE LT ISZERO PUSH3 0x13E JUMPI PUSH1 0x40 MLOAD PUSH3 0x461BCD PUSH1 0xE5 SHL DUP2 MSTORE PUSH1 0x20 PUSH1 0x4 DUP3 ADD MSTORE PUSH1 0x1D PUSH1 0x24 DUP3 ADD MSTORE PUSH32 0x4552524F523A206D757374207061792072657175697265642066656573000000 PUSH1 0x44 DUP3 ADD MSTORE PUSH1 0x64 ADD JUMPDEST PUSH1 0x40 MLOAD DUP1 SWAP2 SUB SWAP1 REVERT JUMPDEST PUSH3 0x149 CALLER PUSH3 0x2EB JUMP JUMPDEST PUSH1 0x15 DUP1 SLOAD PUSH1 0x1 PUSH1 0x1 PUSH1 0xA0 SHL SUB NOT AND CALLER OR SWAP1 SSTORE PUSH3 0x166 DUP2 PUSH3 0x3BC JUMP JUMPDEST PUSH1 0x16 SLOAD PUSH1 0x40 MLOAD PUSH1 0x0 SWAP2 PUSH1 0x1 PUSH1 0x1 PUSH1 0xA0 SHL SUB AND SWAP1 CALLVALUE SWAP1 DUP4 DUP2 DUP2 DUP2 DUP6 DUP8 GAS CALL SWAP3 POP POP POP RETURNDATASIZE DUP1 PUSH1 0x0 DUP2 EQ PUSH3 0x1B5 JUMPI PUSH1 0x40 MLOAD SWAP2 POP PUSH1 0x1F NOT PUSH1 0x3F RETURNDATASIZE ADD AND DUP3 ADD PUSH1 0x40 MSTORE RETURNDATASIZE DUP3 MSTORE RETURNDATASIZE PUSH1 0x0 PUSH1 0x20 DUP5 ADD RETURNDATACOPY PUSH3 0x1BA JUMP JUMPDEST PUSH1 0x60 SWAP2 POP JUMPDEST POP POP SWAP1 POP DUP1 PUSH3 0x20D JUMPI PUSH1 0x40 MLOAD PUSH3 0x461BCD PUSH1 0xE5 SHL DUP2 MSTORE PUSH1 0x20 PUSH1 0x4 DUP3 ADD MSTORE PUSH1 0x1C PUSH1 0x24 DUP3 ADD MSTORE PUSH32 0x416464726573733A20756E61626C6520746F207061792061646D696E00000000 PUSH1 0x44 DUP3 ADD MSTORE PUSH1 0x64 ADD PUSH3 0x135 JUMP JUMPDEST POP POP POP POP PUSH3 0x60E JUMP JUMPDEST PUSH1 0x0 DUP1 SLOAD PUSH1 0x1 PUSH1 0x1 PUSH1 0xA0 SHL SUB DUP4 DUP2 AND PUSH1 0x1 PUSH1 0x1 PUSH1 0xA0 SHL SUB NOT DUP4 AND DUP2 OR DUP5 SSTORE PUSH1 0x40 MLOAD SWAP2 SWAP1 SWAP3 AND SWAP3 DUP4 SWAP2 PUSH32 0x8BE0079C531659141344CD1FD0A4F28419497F9722A3DAAFE3B4186F6B6457E0 SWAP2 SWAP1 LOG3 POP POP JUMP JUMPDEST PUSH1 0x1 PUSH1 0x1 PUSH1 0xE0 SHL SUB NOT DUP1 DUP3 AND EQ ISZERO PUSH3 0x2C3 JUMPI PUSH1 0x40 MLOAD PUSH3 0x461BCD PUSH1 0xE5 SHL DUP2 MSTORE PUSH1 0x20 PUSH1 0x4 DUP3 ADD MSTORE PUSH1 0x1C PUSH1 0x24 DUP3 ADD MSTORE PUSH32 0x4552433136353A20696E76616C696420696E7465726661636520696400000000 PUSH1 0x44 DUP3 ADD MSTORE PUSH1 0x64 ADD PUSH3 0x135 JUMP JUMPDEST PUSH1 0x1 PUSH1 0x1 PUSH1 0xE0 SHL SUB NOT AND PUSH1 0x0 SWAP1 DUP2 MSTORE PUSH1 0x1 PUSH1 0x20 DUP2 SWAP1 MSTORE PUSH1 0x40 SWAP1 SWAP2 KECCAK256 DUP1 SLOAD PUSH1 0xFF NOT AND SWAP1 SWAP2 OR SWAP1 SSTORE JUMP JUMPDEST PUSH1 0x0 SLOAD PUSH1 0x1 PUSH1 0x1 PUSH1 0xA0 SHL SUB AND CALLER EQ PUSH3 0x347 JUMPI PUSH1 0x40 MLOAD PUSH3 0x461BCD PUSH1 0xE5 SHL DUP2 MSTORE PUSH1 0x20 PUSH1 0x4 DUP3 ADD DUP2 SWAP1 MSTORE PUSH1 0x24 DUP3 ADD MSTORE PUSH32 0x4F776E61626C653A2063616C6C6572206973206E6F7420746865206F776E6572 PUSH1 0x44 DUP3 ADD MSTORE PUSH1 0x64 ADD PUSH3 0x135 JUMP JUMPDEST PUSH1 0x1 PUSH1 0x1 PUSH1 0xA0 SHL SUB DUP2 AND PUSH3 0x3AE JUMPI PUSH1 0x40 MLOAD PUSH3 0x461BCD PUSH1 0xE5 SHL DUP2 MSTORE PUSH1 0x20 PUSH1 0x4 DUP3 ADD MSTORE PUSH1 0x26 PUSH1 0x24 DUP3 ADD MSTORE PUSH32 0x4F776E61626C653A206E6577206F776E657220697320746865207A65726F2061 PUSH1 0x44 DUP3 ADD MSTORE PUSH6 0x646472657373 PUSH1 0xD0 SHL PUSH1 0x64 DUP3 ADD MSTORE PUSH1 0x84 ADD PUSH3 0x135 JUMP JUMPDEST PUSH3 0x3B9 DUP2 PUSH3 0x217 JUMP JUMPDEST POP JUMP JUMPDEST DUP1 MLOAD PUSH3 0x3D1 SWAP1 PUSH1 0x8 SWAP1 PUSH1 0x20 DUP5 ADD SWAP1 PUSH3 0x3D5 JUMP JUMPDEST POP POP JUMP JUMPDEST DUP3 DUP1 SLOAD PUSH3 0x3E3 SWAP1 PUSH3 0x5BB JUMP JUMPDEST SWAP1 PUSH1 0x0 MSTORE PUSH1 0x20 PUSH1 0x0 KECCAK256 SWAP1 PUSH1 0x1F ADD PUSH1 0x20 SWAP1 DIV DUP2 ADD SWAP3 DUP3 PUSH3 0x407 JUMPI PUSH1 0x0 DUP6 SSTORE PUSH3 0x452 JUMP JUMPDEST DUP3 PUSH1 0x1F LT PUSH3 0x422 JUMPI DUP1 MLOAD PUSH1 0xFF NOT AND DUP4 DUP1 ADD OR DUP6 SSTORE PUSH3 0x452 JUMP JUMPDEST DUP3 DUP1 ADD PUSH1 0x1 ADD DUP6 SSTORE DUP3 ISZERO PUSH3 0x452 JUMPI SWAP2 DUP3 ADD JUMPDEST DUP3 DUP2 GT ISZERO PUSH3 0x452 JUMPI DUP3 MLOAD DUP3 SSTORE SWAP2 PUSH1 0x20 ADD SWAP2 SWAP1 PUSH1 0x1 ADD SWAP1 PUSH3 0x435 JUMP JUMPDEST POP PUSH3 0x460 SWAP3 SWAP2 POP PUSH3 0x464 JUMP JUMPDEST POP SWAP1 JUMP JUMPDEST JUMPDEST DUP1 DUP3 GT ISZERO PUSH3 0x460 JUMPI PUSH1 0x0 DUP2 SSTORE PUSH1 0x1 ADD PUSH3 0x465 JUMP JUMPDEST PUSH1 0x0 DUP3 PUSH1 0x1F DUP4 ADD SLT PUSH3 0x48C JUMPI DUP1 DUP2 REVERT JUMPDEST DUP2 MLOAD PUSH1 0x1 PUSH1 0x1 PUSH1 0x40 SHL SUB DUP1 DUP3 GT ISZERO PUSH3 0x4A9 JUMPI PUSH3 0x4A9 PUSH3 0x5F8 JUMP JUMPDEST PUSH1 0x40 MLOAD PUSH1 0x1F DUP4 ADD PUSH1 0x1F NOT SWAP1 DUP2 AND PUSH1 0x3F ADD AND DUP2 ADD SWAP1 DUP3 DUP3 GT DUP2 DUP4 LT OR ISZERO PUSH3 0x4D4 JUMPI PUSH3 0x4D4 PUSH3 0x5F8 JUMP JUMPDEST DUP2 PUSH1 0x40 MSTORE DUP4 DUP2 MSTORE PUSH1 0x20 SWAP3 POP DUP7 DUP4 DUP6 DUP9 ADD ADD GT ISZERO PUSH3 0x4F0 JUMPI DUP5 DUP6 REVERT JUMPDEST DUP5 SWAP2 POP JUMPDEST DUP4 DUP3 LT ISZERO PUSH3 0x513 JUMPI DUP6 DUP3 ADD DUP4 ADD MLOAD DUP2 DUP4 ADD DUP5 ADD MSTORE SWAP1 DUP3 ADD SWAP1 PUSH3 0x4F4 JUMP JUMPDEST DUP4 DUP3 GT ISZERO PUSH3 0x524 JUMPI DUP5 DUP4 DUP6 DUP4 ADD ADD MSTORE JUMPDEST SWAP7 SWAP6 POP POP POP POP POP POP JUMP JUMPDEST PUSH1 0x0 DUP1 PUSH1 0x0 PUSH1 0x60 DUP5 DUP7 SUB SLT ISZERO PUSH3 0x543 JUMPI DUP3 DUP4 REVERT JUMPDEST DUP4 MLOAD PUSH1 0x1 PUSH1 0x1 PUSH1 0x40 SHL SUB DUP1 DUP3 GT ISZERO PUSH3 0x55A JUMPI DUP5 DUP6 REVERT JUMPDEST PUSH3 0x568 DUP8 DUP4 DUP9 ADD PUSH3 0x47B JUMP JUMPDEST SWAP5 POP PUSH1 0x20 DUP7 ADD MLOAD SWAP2 POP DUP1 DUP3 GT ISZERO PUSH3 0x57E JUMPI DUP4 DUP5 REVERT JUMPDEST PUSH3 0x58C DUP8 DUP4 DUP9 ADD PUSH3 0x47B JUMP JUMPDEST SWAP4 POP PUSH1 0x40 DUP7 ADD MLOAD SWAP2 POP DUP1 DUP3 GT ISZERO PUSH3 0x5A2 JUMPI DUP3 DUP4 REVERT JUMPDEST POP PUSH3 0x5B1 DUP7 DUP3 DUP8 ADD PUSH3 0x47B JUMP JUMPDEST SWAP2 POP POP SWAP3 POP SWAP3 POP SWAP3 JUMP JUMPDEST PUSH1 0x1 DUP2 DUP2 SHR SWAP1 DUP3 AND DUP1 PUSH3 0x5D0 JUMPI PUSH1 0x7F DUP3 AND SWAP2 POP JUMPDEST PUSH1 0x20 DUP3 LT DUP2 EQ ISZERO PUSH3 0x5F2 JUMPI PUSH4 0x4E487B71 PUSH1 0xE0 SHL PUSH1 0x0 MSTORE PUSH1 0x22 PUSH1 0x4 MSTORE PUSH1 0x24 PUSH1 0x0 REVERT JUMPDEST POP SWAP2 SWAP1 POP JUMP JUMPDEST PUSH4 0x4E487B71 PUSH1 0xE0 SHL PUSH1 0x0 MSTORE PUSH1 0x41 PUSH1 0x4 MSTORE PUSH1 0x24 PUSH1 0x0 REVERT JUMPDEST PUSH2 0x31D1 DUP1 PUSH3 0x61E PUSH1 0x0 CODECOPY PUSH1 0x0 RETURN INVALID PUSH1 0x80 PUSH1 0x40 MSTORE PUSH1 0x4 CALLDATASIZE LT PUSH2 0x36B JUMPI PUSH1 0x0 CALLDATALOAD PUSH1 0xE0 SHR DUP1 PUSH4 0x715018A6 GT PUSH2 0x1C6 JUMPI DUP1 PUSH4 0xC28B8DBD GT PUSH2 0xF7 JUMPI DUP1 PUSH4 0xE268E4D3 GT PUSH2 0x95 JUMPI DUP1 PUSH4 0xEBF0C717 GT PUSH2 0x6F JUMPI DUP1 PUSH4 0xEBF0C717 EQ PUSH2 0x99F JUMPI DUP1 PUSH4 0xF2CFF57F EQ PUSH2 0x9B5 JUMPI DUP1 PUSH4 0xF2FDE38B EQ PUSH2 0x9CB JUMPI DUP1 PUSH4 0xF851A440 EQ PUSH2 0x9EB JUMPI PUSH1 0x0 DUP1 REVERT JUMPDEST DUP1 PUSH4 0xE268E4D3 EQ PUSH2 0x94A JUMPI DUP1 PUSH4 0xE8A3D485 EQ PUSH2 0x96A JUMPI DUP1 PUSH4 0xE985E9C5 EQ PUSH2 0x97F JUMPI PUSH1 0x0 DUP1 REVERT JUMPDEST DUP1 PUSH4 0xD111515D GT PUSH2 0xD1 JUMPI DUP1 PUSH4 0xD111515D EQ PUSH2 0x8D6 JUMPI DUP1 PUSH4 0xD3FC9864 EQ PUSH2 0x8F7 JUMPI DUP1 PUSH4 0xD68FB0ED EQ PUSH2 0x90A JUMPI DUP1 PUSH4 0xDAB5F340 EQ PUSH2 0x92A JUMPI PUSH1 0x0 DUP1 REVERT JUMPDEST DUP1 PUSH4 0xC28B8DBD EQ PUSH2 0x877 JUMPI DUP1 PUSH4 0xC87B56DD EQ PUSH2 0x896 JUMPI DUP1 PUSH4 0xCCFDD2F8 EQ PUSH2 0x8B6 JUMPI PUSH1 0x0 DUP1 REVERT JUMPDEST DUP1 PUSH4 0xA22CB465 GT PUSH2 0x164 JUMPI DUP1 PUSH4 0xB7ED82B1 GT PUSH2 0x13E JUMPI DUP1 PUSH4 0xB7ED82B1 EQ PUSH2 0x802 JUMPI DUP1 PUSH4 0xB88D4FDE EQ PUSH2 0x817 JUMPI DUP1 PUSH4 0xBD8AA780 EQ PUSH2 0x837 JUMPI DUP1 PUSH4 0xBF24C0DE EQ PUSH2 0x857 JUMPI PUSH1 0x0 DUP1 REVERT JUMPDEST DUP1 PUSH4 0xA22CB465 EQ PUSH2 0x7AC JUMPI DUP1 PUSH4 0xA8958C70 EQ PUSH2 0x7CC JUMPI DUP1 PUSH4 0xA92BA3C7 EQ PUSH2 0x7EC JUMPI PUSH1 0x0 DUP1 REVERT JUMPDEST DUP1 PUSH4 0x8DA5CB5B GT PUSH2 0x1A0 JUMPI DUP1 PUSH4 0x8DA5CB5B EQ PUSH2 0x739 JUMPI DUP1 PUSH4 0x95D89B41 EQ PUSH2 0x757 JUMPI DUP1 PUSH4 0x98EEF4B7 EQ PUSH2 0x76C JUMPI DUP1 PUSH4 0x9FD6DB12 EQ PUSH2 0x78C JUMPI PUSH1 0x0 DUP1 REVERT JUMPDEST DUP1 PUSH4 0x715018A6 EQ PUSH2 0x6FC JUMPI DUP1 PUSH4 0x77097FC8 EQ PUSH2 0x711 JUMPI DUP1 PUSH4 0x7A5CAAB3 EQ PUSH2 0x724 JUMPI PUSH1 0x0 DUP1 REVERT JUMPDEST DUP1 PUSH4 0x42842E0E GT PUSH2 0x2A0 JUMPI DUP1 PUSH4 0x6352211E GT PUSH2 0x23E JUMPI DUP1 PUSH4 0x6BBC4291 GT PUSH2 0x218 JUMPI DUP1 PUSH4 0x6BBC4291 EQ PUSH2 0x692 JUMPI DUP1 PUSH4 0x6C0360EB EQ PUSH2 0x6A7 JUMPI DUP1 PUSH4 0x704B6C02 EQ PUSH2 0x6BC JUMPI DUP1 PUSH4 0x70A08231 EQ PUSH2 0x6DC JUMPI PUSH1 0x0 DUP1 REVERT JUMPDEST DUP1 PUSH4 0x6352211E EQ PUSH2 0x63C JUMPI DUP1 PUSH4 0x64E39B87 EQ PUSH2 0x65C JUMPI DUP1 PUSH4 0x6605FF66 EQ PUSH2 0x67C JUMPI PUSH1 0x0 DUP1 REVERT JUMPDEST DUP1 PUSH4 0x548DB174 GT PUSH2 0x27A JUMPI DUP1 PUSH4 0x548DB174 EQ PUSH2 0x5CA JUMPI DUP1 PUSH4 0x5B0C29EB EQ PUSH2 0x5EA JUMPI DUP1 PUSH4 0x5C975ABB EQ PUSH2 0x604 JUMPI DUP1 PUSH4 0x6082ADF8 EQ PUSH2 0x61C JUMPI PUSH1 0x0 DUP1 REVERT JUMPDEST DUP1 PUSH4 0x42842E0E EQ PUSH2 0x582 JUMPI DUP1 PUSH4 0x4FDC45D9 EQ PUSH2 0x5A2 JUMPI DUP1 PUSH4 0x539D5C87 EQ PUSH2 0x5B5 JUMPI PUSH1 0x0 DUP1 REVERT JUMPDEST DUP1 PUSH4 0x150B7A02 GT PUSH2 0x30D JUMPI DUP1 PUSH4 0x20234AC7 GT PUSH2 0x2E7 JUMPI DUP1 PUSH4 0x20234AC7 EQ PUSH2 0x50D JUMPI DUP1 PUSH4 0x21775C92 EQ PUSH2 0x522 JUMPI DUP1 PUSH4 0x2194F3A2 EQ PUSH2 0x542 JUMPI DUP1 PUSH4 0x23B872DD EQ PUSH2 0x562 JUMPI PUSH1 0x0 DUP1 REVERT JUMPDEST DUP1 PUSH4 0x150B7A02 EQ PUSH2 0x481 JUMPI DUP1 PUSH4 0x18160DDD EQ PUSH2 0x4BA JUMPI DUP1 PUSH4 0x1E7BE210 EQ PUSH2 0x4DD JUMPI PUSH1 0x0 DUP1 REVERT JUMPDEST DUP1 PUSH4 0x6FDDE03 GT PUSH2 0x349 JUMPI DUP1 PUSH4 0x6FDDE03 EQ PUSH2 0x3E7 JUMPI DUP1 PUSH4 0x81812FC EQ PUSH2 0x409 JUMPI DUP1 PUSH4 0x95EA7B3 EQ PUSH2 0x441 JUMPI DUP1 PUSH4 0x13AF4035 EQ PUSH2 0x461 JUMPI PUSH1 0x0 DUP1 REVERT JUMPDEST DUP1 PUSH4 0x1FFC9A7 EQ PUSH2 0x370 JUMPI DUP1 PUSH4 0x2FE5305 EQ PUSH2 0x3A5 JUMPI DUP1 PUSH4 0x5E2B0C3 EQ PUSH2 0x3C7 JUMPI JUMPDEST PUSH1 0x0 DUP1 REVERT JUMPDEST CALLVALUE DUP1 ISZERO PUSH2 0x37C JUMPI PUSH1 0x0 DUP1 REVERT JUMPDEST POP PUSH2 0x390 PUSH2 0x38B CALLDATASIZE PUSH1 0x4 PUSH2 0x2CE1 JUMP JUMPDEST PUSH2 0xA0B JUMP JUMPDEST PUSH1 0x40 MLOAD SWAP1 ISZERO ISZERO DUP2 MSTORE PUSH1 0x20 ADD JUMPDEST PUSH1 0x40 MLOAD DUP1 SWAP2 SUB SWAP1 RETURN JUMPDEST CALLVALUE DUP1 ISZERO PUSH2 0x3B1 JUMPI PUSH1 0x0 DUP1 REVERT JUMPDEST POP PUSH2 0x3C5 PUSH2 0x3C0 CALLDATASIZE PUSH1 0x4 PUSH2 0x2D19 JUMP JUMPDEST PUSH2 0xA66 JUMP JUMPDEST STOP JUMPDEST CALLVALUE DUP1 ISZERO PUSH2 0x3D3 JUMPI PUSH1 0x0 DUP1 REVERT JUMPDEST POP PUSH2 0x3C5 PUSH2 0x3E2 CALLDATASIZE PUSH1 0x4 PUSH2 0x2CB1 JUMP JUMPDEST PUSH2 0xB82 JUMP JUMPDEST CALLVALUE DUP1 ISZERO PUSH2 0x3F3 JUMPI PUSH1 0x0 DUP1 REVERT JUMPDEST POP PUSH2 0x3FC PUSH2 0xBCF JUMP JUMPDEST PUSH1 0x40 MLOAD PUSH2 0x39C SWAP2 SWAP1 PUSH2 0x2F24 JUMP JUMPDEST CALLVALUE DUP1 ISZERO PUSH2 0x415 JUMPI PUSH1 0x0 DUP1 REVERT JUMPDEST POP PUSH2 0x429 PUSH2 0x424 CALLDATASIZE PUSH1 0x4 PUSH2 0x2CB1 JUMP JUMPDEST PUSH2 0xC61 JUMP JUMPDEST PUSH1 0x40 MLOAD PUSH1 0x1 PUSH1 0x1 PUSH1 0xA0 SHL SUB SWAP1 SWAP2 AND DUP2 MSTORE PUSH1 0x20 ADD PUSH2 0x39C JUMP JUMPDEST CALLVALUE DUP1 ISZERO PUSH2 0x44D JUMPI PUSH1 0x0 DUP1 REVERT JUMPDEST POP PUSH2 0x3C5 PUSH2 0x45C CALLDATASIZE PUSH1 0x4 PUSH2 0x2B22 JUMP JUMPDEST PUSH2 0xCA5 JUMP JUMPDEST CALLVALUE DUP1 ISZERO PUSH2 0x46D JUMPI PUSH1 0x0 DUP1 REVERT JUMPDEST POP PUSH2 0x3C5 PUSH2 0x47C CALLDATASIZE PUSH1 0x4 PUSH2 0x29FA JUMP JUMPDEST PUSH2 0xD33 JUMP JUMPDEST CALLVALUE DUP1 ISZERO PUSH2 0x48D JUMPI PUSH1 0x0 DUP1 REVERT JUMPDEST POP PUSH2 0x4A1 PUSH2 0x49C CALLDATASIZE PUSH1 0x4 PUSH2 0x2A81 JUMP JUMPDEST PUSH2 0xD7E JUMP JUMPDEST PUSH1 0x40 MLOAD PUSH1 0x1 PUSH1 0x1 PUSH1 0xE0 SHL SUB NOT SWAP1 SWAP2 AND DUP2 MSTORE PUSH1 0x20 ADD PUSH2 0x39C JUMP JUMPDEST CALLVALUE DUP1 ISZERO PUSH2 0x4C6 JUMPI PUSH1 0x0 DUP1 REVERT JUMPDEST POP PUSH1 0x5 SLOAD PUSH1 0x4 SLOAD SUB JUMPDEST PUSH1 0x40 MLOAD SWAP1 DUP2 MSTORE PUSH1 0x20 ADD PUSH2 0x39C JUMP JUMPDEST CALLVALUE DUP1 ISZERO PUSH2 0x4E9 JUMPI PUSH1 0x0 DUP1 REVERT JUMPDEST POP PUSH2 0x390 PUSH2 0x4F8 CALLDATASIZE PUSH1 0x4 PUSH2 0x29FA JUMP JUMPDEST PUSH1 0x2 PUSH1 0x20 MSTORE PUSH1 0x0 SWAP1 DUP2 MSTORE PUSH1 0x40 SWAP1 KECCAK256 SLOAD PUSH1 0xFF AND DUP2 JUMP JUMPDEST CALLVALUE DUP1 ISZERO PUSH2 0x519 JUMPI PUSH1 0x0 DUP1 REVERT JUMPDEST POP PUSH1 0x13 SLOAD PUSH2 0x4CF JUMP JUMPDEST CALLVALUE DUP1 ISZERO PUSH2 0x52E JUMPI PUSH1 0x0 DUP1 REVERT JUMPDEST POP PUSH2 0x3C5 PUSH2 0x53D CALLDATASIZE PUSH1 0x4 PUSH2 0x2C97 JUMP JUMPDEST PUSH2 0xDCF JUMP JUMPDEST CALLVALUE DUP1 ISZERO PUSH2 0x54E JUMPI PUSH1 0x0 DUP1 REVERT JUMPDEST POP PUSH1 0x15 SLOAD PUSH2 0x429 SWAP1 PUSH1 0x1 PUSH1 0x1 PUSH1 0xA0 SHL SUB AND DUP2 JUMP JUMPDEST CALLVALUE DUP1 ISZERO PUSH2 0x56E JUMPI PUSH1 0x0 DUP1 REVERT JUMPDEST POP PUSH2 0x3C5 PUSH2 0x57D CALLDATASIZE PUSH1 0x4 PUSH2 0x2A46 JUMP JUMPDEST PUSH2 0xE71 JUMP JUMPDEST CALLVALUE DUP1 ISZERO PUSH2 0x58E JUMPI PUSH1 0x0 DUP1 REVERT JUMPDEST POP PUSH2 0x3C5 PUSH2 0x59D CALLDATASIZE PUSH1 0x4 PUSH2 0x2A46 JUMP JUMPDEST PUSH2 0xE7C JUMP JUMPDEST PUSH2 0x3C5 PUSH2 0x5B0 CALLDATASIZE PUSH1 0x4 PUSH2 0x2D4B JUMP JUMPDEST PUSH2 0xE97 JUMP JUMPDEST CALLVALUE DUP1 ISZERO PUSH2 0x5C1 JUMPI PUSH1 0x0 DUP1 REVERT JUMPDEST POP PUSH2 0x3C5 PUSH2 0xF57 JUMP JUMPDEST CALLVALUE DUP1 ISZERO PUSH2 0x5D6 JUMPI PUSH1 0x0 DUP1 REVERT JUMPDEST POP PUSH2 0x3C5 PUSH2 0x5E5 CALLDATASIZE PUSH1 0x4 PUSH2 0x2B9F JUMP JUMPDEST PUSH2 0x1010 JUMP JUMPDEST CALLVALUE DUP1 ISZERO PUSH2 0x5F6 JUMPI PUSH1 0x0 DUP1 REVERT JUMPDEST POP PUSH1 0x18 SLOAD PUSH2 0x390 SWAP1 PUSH1 0xFF AND DUP2 JUMP JUMPDEST CALLVALUE DUP1 ISZERO PUSH2 0x610 JUMPI PUSH1 0x0 DUP1 REVERT JUMPDEST POP PUSH1 0xD SLOAD PUSH1 0xFF AND PUSH2 0x390 JUMP JUMPDEST CALLVALUE DUP1 ISZERO PUSH2 0x628 JUMPI PUSH1 0x0 DUP1 REVERT JUMPDEST POP PUSH2 0x3C5 PUSH2 0x637 CALLDATASIZE PUSH1 0x4 PUSH2 0x2C97 JUMP JUMPDEST PUSH2 0x112B JUMP JUMPDEST CALLVALUE DUP1 ISZERO PUSH2 0x648 JUMPI PUSH1 0x0 DUP1 REVERT JUMPDEST POP PUSH2 0x429 PUSH2 0x657 CALLDATASIZE PUSH1 0x4 PUSH2 0x2CB1 JUMP JUMPDEST PUSH2 0x1186 JUMP JUMPDEST CALLVALUE DUP1 ISZERO PUSH2 0x668 JUMPI PUSH1 0x0 DUP1 REVERT JUMPDEST POP PUSH2 0x3C5 PUSH2 0x677 CALLDATASIZE PUSH1 0x4 PUSH2 0x29FA JUMP JUMPDEST PUSH2 0x1198 JUMP JUMPDEST CALLVALUE DUP1 ISZERO PUSH2 0x688 JUMPI PUSH1 0x0 DUP1 REVERT JUMPDEST POP PUSH2 0x4CF PUSH1 0xF SLOAD DUP2 JUMP JUMPDEST CALLVALUE DUP1 ISZERO PUSH2 0x69E JUMPI PUSH1 0x0 DUP1 REVERT JUMPDEST POP PUSH1 0x14 SLOAD PUSH2 0x4CF JUMP JUMPDEST CALLVALUE DUP1 ISZERO PUSH2 0x6B3 JUMPI PUSH1 0x0 DUP1 REVERT JUMPDEST POP PUSH2 0x3FC PUSH2 0x11F9 JUMP JUMPDEST CALLVALUE DUP1 ISZERO PUSH2 0x6C8 JUMPI PUSH1 0x0 DUP1 REVERT JUMPDEST POP PUSH2 0x3C5 PUSH2 0x6D7 CALLDATASIZE PUSH1 0x4 PUSH2 0x29FA JUMP JUMPDEST PUSH2 0x1208 JUMP JUMPDEST CALLVALUE DUP1 ISZERO PUSH2 0x6E8 JUMPI PUSH1 0x0 DUP1 REVERT JUMPDEST POP PUSH2 0x4CF PUSH2 0x6F7 CALLDATASIZE PUSH1 0x4 PUSH2 0x29FA JUMP JUMPDEST PUSH2 0x1272 JUMP JUMPDEST CALLVALUE DUP1 ISZERO PUSH2 0x708 JUMPI PUSH1 0x0 DUP1 REVERT JUMPDEST POP PUSH2 0x3C5 PUSH2 0x12C0 JUMP JUMPDEST PUSH2 0x3C5 PUSH2 0x71F CALLDATASIZE PUSH1 0x4 PUSH2 0x2DE2 JUMP JUMPDEST PUSH2 0x1326 JUMP JUMPDEST CALLVALUE DUP1 ISZERO PUSH2 0x730 JUMPI PUSH1 0x0 DUP1 REVERT JUMPDEST POP PUSH1 0x12 SLOAD PUSH2 0x4CF JUMP JUMPDEST CALLVALUE DUP1 ISZERO PUSH2 0x745 JUMPI PUSH1 0x0 DUP1 REVERT JUMPDEST POP PUSH1 0x0 SLOAD PUSH1 0x1 PUSH1 0x1 PUSH1 0xA0 SHL SUB AND PUSH2 0x429 JUMP JUMPDEST CALLVALUE DUP1 ISZERO PUSH2 0x763 JUMPI PUSH1 0x0 DUP1 REVERT JUMPDEST POP PUSH2 0x3FC PUSH2 0x1331 JUMP JUMPDEST CALLVALUE DUP1 ISZERO PUSH2 0x778 JUMPI PUSH1 0x0 DUP1 REVERT JUMPDEST POP PUSH2 0x3C5 PUSH2 0x787 CALLDATASIZE PUSH1 0x4 PUSH2 0x2B9F JUMP JUMPDEST PUSH2 0x1340 JUMP JUMPDEST CALLVALUE DUP1 ISZERO PUSH2 0x798 JUMPI PUSH1 0x0 DUP1 REVERT JUMPDEST POP PUSH1 0x18 SLOAD PUSH2 0x390 SWAP1 PUSH3 0x10000 SWAP1 DIV PUSH1 0xFF AND DUP2 JUMP JUMPDEST CALLVALUE DUP1 ISZERO PUSH2 0x7B8 JUMPI PUSH1 0x0 DUP1 REVERT JUMPDEST POP PUSH2 0x3C5 PUSH2 0x7C7 CALLDATASIZE PUSH1 0x4 PUSH2 0x2AF9 JUMP JUMPDEST PUSH2 0x144F JUMP JUMPDEST CALLVALUE DUP1 ISZERO PUSH2 0x7D8 JUMPI PUSH1 0x0 DUP1 REVERT JUMPDEST POP PUSH2 0x3C5 PUSH2 0x7E7 CALLDATASIZE PUSH1 0x4 PUSH2 0x2C97 JUMP JUMPDEST PUSH2 0x14E5 JUMP JUMPDEST CALLVALUE DUP1 ISZERO PUSH2 0x7F8 JUMPI PUSH1 0x0 DUP1 REVERT JUMPDEST POP PUSH2 0x4CF PUSH1 0x10 SLOAD DUP2 JUMP JUMPDEST CALLVALUE DUP1 ISZERO PUSH2 0x80E JUMPI PUSH1 0x0 DUP1 REVERT JUMPDEST POP PUSH1 0x11 SLOAD PUSH2 0x4CF JUMP JUMPDEST CALLVALUE DUP1 ISZERO PUSH2 0x823 JUMPI PUSH1 0x0 DUP1 REVERT JUMPDEST POP PUSH2 0x3C5 PUSH2 0x832 CALLDATASIZE PUSH1 0x4 PUSH2 0x2A81 JUMP JUMPDEST PUSH2 0x1547 JUMP JUMPDEST CALLVALUE DUP1 ISZERO PUSH2 0x843 JUMPI PUSH1 0x0 DUP1 REVERT JUMPDEST POP PUSH2 0x3C5 PUSH2 0x852 CALLDATASIZE PUSH1 0x4 PUSH2 0x2B9F JUMP JUMPDEST PUSH2 0x159D JUMP JUMPDEST CALLVALUE DUP1 ISZERO PUSH2 0x863 JUMPI PUSH1 0x0 DUP1 REVERT JUMPDEST POP PUSH2 0x3FC PUSH2 0x872 CALLDATASIZE PUSH1 0x4 PUSH2 0x2CB1 JUMP JUMPDEST PUSH2 0x16B3 JUMP JUMPDEST CALLVALUE DUP1 ISZERO PUSH2 0x883 JUMPI PUSH1 0x0 DUP1 REVERT JUMPDEST POP PUSH1 0x18 SLOAD PUSH2 0x390 SWAP1 PUSH2 0x100 SWAP1 DIV PUSH1 0xFF AND DUP2 JUMP JUMPDEST CALLVALUE DUP1 ISZERO PUSH2 0x8A2 JUMPI PUSH1 0x0 DUP1 REVERT JUMPDEST POP PUSH2 0x3FC PUSH2 0x8B1 CALLDATASIZE PUSH1 0x4 PUSH2 0x2CB1 JUMP JUMPDEST PUSH2 0x174D JUMP JUMPDEST CALLVALUE DUP1 ISZERO PUSH2 0x8C2 JUMPI PUSH1 0x0 DUP1 REVERT JUMPDEST POP PUSH2 0x3C5 PUSH2 0x8D1 CALLDATASIZE PUSH1 0x4 PUSH2 0x2CB1 JUMP JUMPDEST PUSH2 0x17D2 JUMP JUMPDEST CALLVALUE DUP1 ISZERO PUSH2 0x8E2 JUMPI PUSH1 0x0 DUP1 REVERT JUMPDEST POP PUSH1 0x18 SLOAD PUSH2 0x390 SWAP1 PUSH4 0x1000000 SWAP1 DIV PUSH1 0xFF AND DUP2 JUMP JUMPDEST PUSH2 0x3C5 PUSH2 0x905 CALLDATASIZE PUSH1 0x4 PUSH2 0x2B4B JUMP JUMPDEST PUSH2 0x181F JUMP JUMPDEST CALLVALUE DUP1 ISZERO PUSH2 0x916 JUMPI PUSH1 0x0 DUP1 REVERT JUMPDEST POP PUSH2 0x390 PUSH2 0x925 CALLDATASIZE PUSH1 0x4 PUSH2 0x2C38 JUMP JUMPDEST PUSH2 0x182A JUMP JUMPDEST CALLVALUE DUP1 ISZERO PUSH2 0x936 JUMPI PUSH1 0x0 DUP1 REVERT JUMPDEST POP PUSH2 0x3C5 PUSH2 0x945 CALLDATASIZE PUSH1 0x4 PUSH2 0x2CB1 JUMP JUMPDEST PUSH2 0x19A0 JUMP JUMPDEST CALLVALUE DUP1 ISZERO PUSH2 0x956 JUMPI PUSH1 0x0 DUP1 REVERT JUMPDEST POP PUSH2 0x3C5 PUSH2 0x965 CALLDATASIZE PUSH1 0x4 PUSH2 0x2CB1 JUMP JUMPDEST PUSH2 0x19ED JUMP JUMPDEST CALLVALUE DUP1 ISZERO PUSH2 0x976 JUMPI PUSH1 0x0 DUP1 REVERT JUMPDEST POP PUSH2 0x3FC PUSH2 0x1A31 JUMP JUMPDEST CALLVALUE DUP1 ISZERO PUSH2 0x98B JUMPI PUSH1 0x0 DUP1 REVERT JUMPDEST POP PUSH2 0x390 PUSH2 0x99A CALLDATASIZE PUSH1 0x4 PUSH2 0x2A14 JUMP JUMPDEST PUSH2 0x1A5F JUMP JUMPDEST CALLVALUE DUP1 ISZERO PUSH2 0x9AB JUMPI PUSH1 0x0 DUP1 REVERT JUMPDEST POP PUSH2 0x4CF PUSH1 0xE SLOAD DUP2 JUMP JUMPDEST CALLVALUE DUP1 ISZERO PUSH2 0x9C1 JUMPI PUSH1 0x0 DUP1 REVERT JUMPDEST POP PUSH2 0x4CF PUSH1 0x17 SLOAD DUP2 JUMP JUMPDEST CALLVALUE DUP1 ISZERO PUSH2 0x9D7 JUMPI PUSH1 0x0 DUP1 REVERT JUMPDEST POP PUSH2 0x3C5 PUSH2 0x9E6 CALLDATASIZE PUSH1 0x4 PUSH2 0x29FA JUMP JUMPDEST PUSH2 0x1A8D JUMP JUMPDEST CALLVALUE DUP1 ISZERO PUSH2 0x9F7 JUMPI PUSH1 0x0 DUP1 REVERT JUMPDEST POP PUSH1 0x16 SLOAD PUSH2 0x429 SWAP1 PUSH1 0x1 PUSH1 0x1 PUSH1 0xA0 SHL SUB AND DUP2 JUMP JUMPDEST PUSH1 0x0 PUSH1 0x1 PUSH1 0x1 PUSH1 0xE0 SHL SUB NOT DUP3 AND PUSH4 0x80AC58CD PUSH1 0xE0 SHL EQ DUP1 PUSH2 0xA3C JUMPI POP PUSH1 0x1 PUSH1 0x1 PUSH1 0xE0 SHL SUB NOT DUP3 AND PUSH4 0x5B5E139F PUSH1 0xE0 SHL EQ JUMPDEST DUP1 PUSH2 0xA60 JUMPI POP PUSH1 0x1 PUSH1 0x1 PUSH1 0xE0 SHL SUB NOT DUP3 AND PUSH1 0x0 SWAP1 DUP2 MSTORE PUSH1 0x1 PUSH1 0x20 MSTORE PUSH1 0x40 SWAP1 KECCAK256 SLOAD PUSH1 0xFF AND JUMPDEST SWAP3 SWAP2 POP POP JUMP JUMPDEST PUSH1 0x0 SLOAD PUSH1 0x1 PUSH1 0x1 PUSH1 0xA0 SHL SUB AND CALLER EQ DUP1 PUSH2 0xA89 JUMPI POP PUSH1 0x16 SLOAD PUSH1 0x1 PUSH1 0x1 PUSH1 0xA0 SHL SUB AND CALLER EQ JUMPDEST PUSH2 0xAAE JUMPI PUSH1 0x40 MLOAD PUSH3 0x461BCD PUSH1 0xE5 SHL DUP2 MSTORE PUSH1 0x4 ADD PUSH2 0xAA5 SWAP1 PUSH2 0x2FB2 JUMP JUMPDEST PUSH1 0x40 MLOAD DUP1 SWAP2 SUB SWAP1 REVERT JUMPDEST PUSH1 0x18 SLOAD PUSH4 0x1000000 SWAP1 DIV PUSH1 0xFF AND ISZERO PUSH2 0xAFC JUMPI PUSH1 0x40 MLOAD PUSH3 0x461BCD PUSH1 0xE5 SHL DUP2 MSTORE PUSH1 0x20 PUSH1 0x4 DUP3 ADD MSTORE PUSH1 0x11 PUSH1 0x24 DUP3 ADD MSTORE PUSH17 0x4D657461646174612066726F7A656E2021 PUSH1 0x78 SHL PUSH1 0x44 DUP3 ADD MSTORE PUSH1 0x64 ADD PUSH2 0xAA5 JUMP JUMPDEST PUSH1 0x2 PUSH1 0x19 SLOAD LT PUSH2 0xB5E JUMPI PUSH1 0x40 MLOAD PUSH3 0x461BCD PUSH1 0xE5 SHL DUP2 MSTORE PUSH1 0x20 PUSH1 0x4 DUP3 ADD MSTORE PUSH1 0x27 PUSH1 0x24 DUP3 ADD MSTORE PUSH32 0x596F752063616E6E6F74206D616B65206D6F7265207468616E20746872656520 PUSH1 0x44 DUP3 ADD MSTORE PUSH7 0x72657665616C73 PUSH1 0xC8 SHL PUSH1 0x64 DUP3 ADD MSTORE PUSH1 0x84 ADD PUSH2 0xAA5 JUMP JUMPDEST PUSH2 0xB67 DUP2 PUSH2 0x1B55 JUMP JUMPDEST PUSH1 0x1 PUSH1 0x19 PUSH1 0x0 DUP3 DUP3 SLOAD PUSH2 0xB7A SWAP2 SWAP1 PUSH2 0x304B JUMP JUMPDEST SWAP1 SWAP2 SSTORE POP POP POP JUMP JUMPDEST PUSH1 0x16 SLOAD PUSH1 0x1 PUSH1 0x1 PUSH1 0xA0 SHL SUB AND CALLER PUSH1 0x1 PUSH1 0x1 PUSH1 0xA0 SHL SUB AND EQ DUP1 PUSH2 0xBAE JUMPI POP PUSH1 0x0 SLOAD PUSH1 0x1 PUSH1 0x1 PUSH1 0xA0 SHL SUB AND CALLER EQ JUMPDEST PUSH2 0xBCA JUMPI PUSH1 0x40 MLOAD PUSH3 0x461BCD PUSH1 0xE5 SHL DUP2 MSTORE PUSH1 0x4 ADD PUSH2 0xAA5 SWAP1 PUSH2 0x2F85 JUMP JUMPDEST PUSH1 0x12 SSTORE JUMP JUMPDEST PUSH1 0x60 PUSH1 0x6 DUP1 SLOAD PUSH2 0xBDE SWAP1 PUSH2 0x30D9 JUMP JUMPDEST DUP1 PUSH1 0x1F ADD PUSH1 0x20 DUP1 SWAP2 DIV MUL PUSH1 0x20 ADD PUSH1 0x40 MLOAD SWAP1 DUP2 ADD PUSH1 0x40 MSTORE DUP1 SWAP3 SWAP2 SWAP1 DUP2 DUP2 MSTORE PUSH1 0x20 ADD DUP3 DUP1 SLOAD PUSH2 0xC0A SWAP1 PUSH2 0x30D9 JUMP JUMPDEST DUP1 ISZERO PUSH2 0xC57 JUMPI DUP1 PUSH1 0x1F LT PUSH2 0xC2C JUMPI PUSH2 0x100 DUP1 DUP4 SLOAD DIV MUL DUP4 MSTORE SWAP2 PUSH1 0x20 ADD SWAP2 PUSH2 0xC57 JUMP JUMPDEST DUP3 ADD SWAP2 SWAP1 PUSH1 0x0 MSTORE PUSH1 0x20 PUSH1 0x0 KECCAK256 SWAP1 JUMPDEST DUP2 SLOAD DUP2 MSTORE SWAP1 PUSH1 0x1 ADD SWAP1 PUSH1 0x20 ADD DUP1 DUP4 GT PUSH2 0xC3A JUMPI DUP3 SWAP1 SUB PUSH1 0x1F AND DUP3 ADD SWAP2 JUMPDEST POP POP POP POP POP SWAP1 POP SWAP1 JUMP JUMPDEST PUSH1 0x0 PUSH2 0xC6C DUP3 PUSH2 0x1B68 JUMP JUMPDEST PUSH2 0xC89 JUMPI PUSH1 0x40 MLOAD PUSH4 0x33D1C039 PUSH1 0xE2 SHL DUP2 MSTORE PUSH1 0x4 ADD PUSH1 0x40 MLOAD DUP1 SWAP2 SUB SWAP1 REVERT JUMPDEST POP PUSH1 0x0 SWAP1 DUP2 MSTORE PUSH1 0xB PUSH1 0x20 MSTORE PUSH1 0x40 SWAP1 KECCAK256 SLOAD PUSH1 0x1 PUSH1 0x1 PUSH1 0xA0 SHL SUB AND SWAP1 JUMP JUMPDEST PUSH1 0x0 PUSH2 0xCB0 DUP3 PUSH2 0x1186 JUMP JUMPDEST SWAP1 POP DUP1 PUSH1 0x1 PUSH1 0x1 PUSH1 0xA0 SHL SUB AND DUP4 PUSH1 0x1 PUSH1 0x1 PUSH1 0xA0 SHL SUB AND EQ ISZERO PUSH2 0xCE5 JUMPI PUSH1 0x40 MLOAD PUSH4 0x250FDEE3 PUSH1 0xE2 SHL DUP2 MSTORE PUSH1 0x4 ADD PUSH1 0x40 MLOAD DUP1 SWAP2 SUB SWAP1 REVERT JUMPDEST CALLER PUSH1 0x1 PUSH1 0x1 PUSH1 0xA0 SHL SUB DUP3 AND EQ DUP1 ISZERO SWAP1 PUSH2 0xD05 JUMPI POP PUSH2 0xD03 DUP2 CALLER PUSH2 0x1A5F JUMP JUMPDEST ISZERO JUMPDEST ISZERO PUSH2 0xD23 JUMPI PUSH1 0x40 MLOAD PUSH4 0x67D9DCA1 PUSH1 0xE1 SHL DUP2 MSTORE PUSH1 0x4 ADD PUSH1 0x40 MLOAD DUP1 SWAP2 SUB SWAP1 REVERT JUMPDEST PUSH2 0xD2E DUP4 DUP4 DUP4 PUSH2 0x1B94 JUMP JUMPDEST POP POP POP JUMP JUMPDEST PUSH1 0x0 SLOAD PUSH1 0x1 PUSH1 0x1 PUSH1 0xA0 SHL SUB AND CALLER EQ DUP1 PUSH2 0xD56 JUMPI POP PUSH1 0x16 SLOAD PUSH1 0x1 PUSH1 0x1 PUSH1 0xA0 SHL SUB AND CALLER EQ JUMPDEST PUSH2 0xD72 JUMPI PUSH1 0x40 MLOAD PUSH3 0x461BCD PUSH1 0xE5 SHL DUP2 MSTORE PUSH1 0x4 ADD PUSH2 0xAA5 SWAP1 PUSH2 0x2FB2 JUMP JUMPDEST PUSH2 0xD7B DUP2 PUSH2 0x1A8D JUMP JUMPDEST POP JUMP JUMPDEST PUSH1 0x0 PUSH32 0xA05D90F300156AD1B545BC5D8197024456F21D22A708F5AF04DD293E3D605251 DUP6 DUP6 DUP6 DUP6 PUSH1 0x40 MLOAD PUSH2 0xDB5 SWAP5 SWAP4 SWAP3 SWAP2 SWAP1 PUSH2 0x2EE7 JUMP JUMPDEST PUSH1 0x40 MLOAD DUP1 SWAP2 SUB SWAP1 LOG1 POP PUSH4 0xA85BD01 PUSH1 0xE1 SHL JUMPDEST SWAP5 SWAP4 POP POP POP POP JUMP JUMPDEST PUSH1 0x0 SLOAD PUSH1 0x1 PUSH1 0x1 PUSH1 0xA0 SHL SUB AND CALLER EQ DUP1 PUSH2 0xDF2 JUMPI POP PUSH1 0x16 SLOAD PUSH1 0x1 PUSH1 0x1 PUSH1 0xA0 SHL SUB AND CALLER EQ JUMPDEST PUSH2 0xE55 JUMPI PUSH1 0x40 MLOAD PUSH3 0x461BCD PUSH1 0xE5 SHL DUP2 MSTORE PUSH1 0x20 PUSH1 0x4 DUP3 ADD MSTORE PUSH1 0x2E PUSH1 0x24 DUP3 ADD MSTORE PUSH32 0x4E6F6E46756E6769626C65546F6B656E3A206D75737420686176652061646D69 PUSH1 0x44 DUP3 ADD MSTORE PUSH14 0x1B881C9BDB19481D1BC81B5A5B9D PUSH1 0x92 SHL PUSH1 0x64 DUP3 ADD MSTORE PUSH1 0x84 ADD PUSH2 0xAA5 JUMP JUMPDEST PUSH1 0x18 DUP1 SLOAD SWAP2 ISZERO ISZERO PUSH3 0x10000 MUL PUSH3 0xFF0000 NOT SWAP1 SWAP3 AND SWAP2 SWAP1 SWAP2 OR SWAP1 SSTORE JUMP JUMPDEST PUSH2 0xD2E DUP4 DUP4 DUP4 PUSH2 0x1BF0 JUMP JUMPDEST PUSH2 0xD2E DUP4 DUP4 DUP4 PUSH1 0x40 MLOAD DUP1 PUSH1 0x20 ADD PUSH1 0x40 MSTORE DUP1 PUSH1 0x0 DUP2 MSTORE POP PUSH2 0x1547 JUMP JUMPDEST PUSH1 0x18 SLOAD PUSH2 0x100 SWAP1 DIV PUSH1 0xFF AND PUSH2 0xEEE JUMPI PUSH1 0x40 MLOAD PUSH3 0x461BCD PUSH1 0xE5 SHL DUP2 MSTORE PUSH1 0x20 PUSH1 0x4 DUP3 ADD DUP2 SWAP1 MSTORE PUSH1 0x24 DUP3 ADD MSTORE PUSH32 0x4552524F523A2021676173467257686974656C697374696E67456E61626C6564 PUSH1 0x44 DUP3 ADD MSTORE PUSH1 0x64 ADD PUSH2 0xAA5 JUMP JUMPDEST PUSH2 0xEF9 DUP4 DUP6 DUP5 PUSH2 0x182A JUMP JUMPDEST PUSH2 0xF45 JUMPI PUSH1 0x40 MLOAD PUSH3 0x461BCD PUSH1 0xE5 SHL DUP2 MSTORE PUSH1 0x20 PUSH1 0x4 DUP3 ADD MSTORE PUSH1 0x17 PUSH1 0x24 DUP3 ADD MSTORE PUSH32 0x4E6F7420476173467265652077686974656C6973746564000000000000000000 PUSH1 0x44 DUP3 ADD MSTORE PUSH1 0x64 ADD PUSH2 0xAA5 JUMP JUMPDEST PUSH2 0xF50 CALLER DUP7 DUP4 PUSH2 0x1DDB JUMP JUMPDEST POP POP POP POP POP JUMP JUMPDEST PUSH1 0x0 SLOAD PUSH1 0x1 PUSH1 0x1 PUSH1 0xA0 SHL SUB AND CALLER EQ DUP1 PUSH2 0xF7A JUMPI POP PUSH1 0x16 SLOAD PUSH1 0x1 PUSH1 0x1 PUSH1 0xA0 SHL SUB AND CALLER EQ JUMPDEST PUSH2 0xF96 JUMPI PUSH1 0x40 MLOAD PUSH3 0x461BCD PUSH1 0xE5 SHL DUP2 MSTORE PUSH1 0x4 ADD PUSH2 0xAA5 SWAP1 PUSH2 0x2F37 JUMP JUMPDEST PUSH1 0x18 SLOAD PUSH4 0x1000000 SWAP1 DIV PUSH1 0xFF AND ISZERO PUSH2 0xFFB JUMPI PUSH1 0x40 MLOAD PUSH3 0x461BCD PUSH1 0xE5 SHL DUP2 MSTORE PUSH1 0x20 PUSH1 0x4 DUP3 ADD MSTORE PUSH1 0x22 PUSH1 0x24 DUP3 ADD MSTORE PUSH32 0x4E6F6E46756E6769626C65546F6B656E3A20616C72656164792066726F7A656E PUSH1 0x44 DUP3 ADD MSTORE PUSH2 0x2021 PUSH1 0xF0 SHL PUSH1 0x64 DUP3 ADD MSTORE PUSH1 0x84 ADD PUSH2 0xAA5 JUMP JUMPDEST PUSH1 0x18 DUP1 SLOAD PUSH4 0xFF000000 NOT AND PUSH4 0x1000000 OR SWAP1 SSTORE JUMP JUMPDEST PUSH1 0x0 SLOAD PUSH1 0x1 PUSH1 0x1 PUSH1 0xA0 SHL SUB AND CALLER EQ DUP1 PUSH2 0x1033 JUMPI POP PUSH1 0x16 SLOAD PUSH1 0x1 PUSH1 0x1 PUSH1 0xA0 SHL SUB AND CALLER EQ JUMPDEST PUSH2 0x104F JUMPI PUSH1 0x40 MLOAD PUSH3 0x461BCD PUSH1 0xE5 SHL DUP2 MSTORE PUSH1 0x4 ADD PUSH2 0xAA5 SWAP1 PUSH2 0x2FB2 JUMP JUMPDEST PUSH1 0x0 JUMPDEST DUP2 MLOAD DUP2 LT ISZERO PUSH2 0x1127 JUMPI PUSH1 0x2 PUSH1 0x0 DUP4 DUP4 DUP2 MLOAD DUP2 LT PUSH2 0x107F JUMPI PUSH4 0x4E487B71 PUSH1 0xE0 SHL PUSH1 0x0 MSTORE PUSH1 0x32 PUSH1 0x4 MSTORE PUSH1 0x24 PUSH1 0x0 REVERT JUMPDEST PUSH1 0x20 SWAP1 DUP2 MUL SWAP2 SWAP1 SWAP2 ADD DUP2 ADD MLOAD PUSH1 0x1 PUSH1 0x1 PUSH1 0xA0 SHL SUB AND DUP3 MSTORE DUP2 ADD SWAP2 SWAP1 SWAP2 MSTORE PUSH1 0x40 ADD PUSH1 0x0 KECCAK256 SLOAD PUSH1 0xFF AND ISZERO PUSH2 0x10BD JUMPI PUSH1 0x10 SLOAD PUSH2 0x10B9 SWAP1 PUSH1 0x1 PUSH2 0x213D JUMP JUMPDEST PUSH1 0x10 SSTORE JUMPDEST PUSH1 0x0 PUSH1 0x2 PUSH1 0x0 DUP5 DUP5 DUP2 MLOAD DUP2 LT PUSH2 0x10E3 JUMPI PUSH4 0x4E487B71 PUSH1 0xE0 SHL PUSH1 0x0 MSTORE PUSH1 0x32 PUSH1 0x4 MSTORE PUSH1 0x24 PUSH1 0x0 REVERT JUMPDEST PUSH1 0x20 SWAP1 DUP2 MUL SWAP2 SWAP1 SWAP2 ADD DUP2 ADD MLOAD PUSH1 0x1 PUSH1 0x1 PUSH1 0xA0 SHL SUB AND DUP3 MSTORE DUP2 ADD SWAP2 SWAP1 SWAP2 MSTORE PUSH1 0x40 ADD PUSH1 0x0 KECCAK256 DUP1 SLOAD PUSH1 0xFF NOT AND SWAP2 ISZERO ISZERO SWAP2 SWAP1 SWAP2 OR SWAP1 SSTORE DUP1 PUSH2 0x111F DUP2 PUSH2 0x3114 JUMP JUMPDEST SWAP2 POP POP PUSH2 0x1052 JUMP JUMPDEST POP POP JUMP JUMPDEST PUSH1 0x16 SLOAD PUSH1 0x1 PUSH1 0x1 PUSH1 0xA0 SHL SUB AND CALLER PUSH1 0x1 PUSH1 0x1 PUSH1 0xA0 SHL SUB AND EQ DUP1 PUSH2 0x1157 JUMPI POP PUSH1 0x0 SLOAD PUSH1 0x1 PUSH1 0x1 PUSH1 0xA0 SHL SUB AND CALLER EQ JUMPDEST PUSH2 0x1173 JUMPI PUSH1 0x40 MLOAD PUSH3 0x461BCD PUSH1 0xE5 SHL DUP2 MSTORE PUSH1 0x4 ADD PUSH2 0xAA5 SWAP1 PUSH2 0x2F85 JUMP JUMPDEST PUSH1 0x18 DUP1 SLOAD PUSH1 0xFF NOT AND SWAP2 ISZERO ISZERO SWAP2 SWAP1 SWAP2 OR SWAP1 SSTORE JUMP JUMPDEST PUSH1 0x0 PUSH2 0x1191 DUP3 PUSH2 0x217F JUMP JUMPDEST MLOAD SWAP3 SWAP2 POP POP JUMP JUMPDEST PUSH1 0x0 SLOAD PUSH1 0x1 PUSH1 0x1 PUSH1 0xA0 SHL SUB AND CALLER EQ DUP1 PUSH2 0x11BB JUMPI POP PUSH1 0x16 SLOAD PUSH1 0x1 PUSH1 0x1 PUSH1 0xA0 SHL SUB AND CALLER EQ JUMPDEST PUSH2 0x11D7 JUMPI PUSH1 0x40 MLOAD PUSH3 0x461BCD PUSH1 0xE5 SHL DUP2 MSTORE PUSH1 0x4 ADD PUSH2 0xAA5 SWAP1 PUSH2 0x2FB2 JUMP JUMPDEST PUSH1 0x15 DUP1 SLOAD PUSH1 0x1 PUSH1 0x1 PUSH1 0xA0 SHL SUB NOT AND PUSH1 0x1 PUSH1 0x1 PUSH1 0xA0 SHL SUB SWAP3 SWAP1 SWAP3 AND SWAP2 SWAP1 SWAP2 OR SWAP1 SSTORE JUMP JUMPDEST PUSH1 0x60 PUSH1 0x8 DUP1 SLOAD PUSH2 0xBDE SWAP1 PUSH2 0x30D9 JUMP JUMPDEST PUSH1 0x16 SLOAD PUSH1 0x1 PUSH1 0x1 PUSH1 0xA0 SHL SUB AND CALLER PUSH1 0x1 PUSH1 0x1 PUSH1 0xA0 SHL SUB AND EQ DUP1 PUSH2 0x1234 JUMPI POP PUSH1 0x0 SLOAD PUSH1 0x1 PUSH1 0x1 PUSH1 0xA0 SHL SUB AND CALLER EQ JUMPDEST PUSH2 0x1250 JUMPI PUSH1 0x40 MLOAD PUSH3 0x461BCD PUSH1 0xE5 SHL DUP2 MSTORE PUSH1 0x4 ADD PUSH2 0xAA5 SWAP1 PUSH2 0x2F85 JUMP JUMPDEST PUSH1 0x16 DUP1 SLOAD PUSH1 0x1 PUSH1 0x1 PUSH1 0xA0 SHL SUB NOT AND PUSH1 0x1 PUSH1 0x1 PUSH1 0xA0 SHL SUB SWAP3 SWAP1 SWAP3 AND SWAP2 SWAP1 SWAP2 OR SWAP1 SSTORE JUMP JUMPDEST PUSH1 0x0 PUSH1 0x1 PUSH1 0x1 PUSH1 0xA0 SHL SUB DUP3 AND PUSH2 0x129B JUMPI PUSH1 0x40 MLOAD PUSH4 0x23D3AD81 PUSH1 0xE2 SHL DUP2 MSTORE PUSH1 0x4 ADD PUSH1 0x40 MLOAD DUP1 SWAP2 SUB SWAP1 REVERT JUMPDEST POP PUSH1 0x1 PUSH1 0x1 PUSH1 0xA0 SHL SUB AND PUSH1 0x0 SWAP1 DUP2 MSTORE PUSH1 0xA PUSH1 0x20 MSTORE PUSH1 0x40 SWAP1 KECCAK256 SLOAD PUSH1 0x1 PUSH1 0x1 PUSH1 0x40 SHL SUB AND SWAP1 JUMP JUMPDEST PUSH1 0x0 SLOAD PUSH1 0x1 PUSH1 0x1 PUSH1 0xA0 SHL SUB AND CALLER EQ PUSH2 0x131A JUMPI PUSH1 0x40 MLOAD PUSH3 0x461BCD PUSH1 0xE5 SHL DUP2 MSTORE PUSH1 0x20 PUSH1 0x4 DUP3 ADD DUP2 SWAP1 MSTORE PUSH1 0x24 DUP3 ADD MSTORE PUSH32 0x4F776E61626C653A2063616C6C6572206973206E6F7420746865206F776E6572 PUSH1 0x44 DUP3 ADD MSTORE PUSH1 0x64 ADD PUSH2 0xAA5 JUMP JUMPDEST PUSH2 0x1324 PUSH1 0x0 PUSH2 0x2299 JUMP JUMPDEST JUMP JUMPDEST PUSH2 0x1127 CALLER DUP4 DUP4 PUSH2 0x1DDB JUMP JUMPDEST PUSH1 0x60 PUSH1 0x7 DUP1 SLOAD PUSH2 0xBDE SWAP1 PUSH2 0x30D9 JUMP JUMPDEST PUSH1 0x0 SLOAD PUSH1 0x1 PUSH1 0x1 PUSH1 0xA0 SHL SUB AND CALLER EQ DUP1 PUSH2 0x1363 JUMPI POP PUSH1 0x16 SLOAD PUSH1 0x1 PUSH1 0x1 PUSH1 0xA0 SHL SUB AND CALLER EQ JUMPDEST PUSH2 0x13AF JUMPI PUSH1 0x40 MLOAD PUSH3 0x461BCD PUSH1 0xE5 SHL DUP2 MSTORE PUSH1 0x20 PUSH1 0x4 DUP3 ADD MSTORE PUSH1 0x1B PUSH1 0x24 DUP3 ADD MSTORE PUSH32 0x4552524F523A206D75737420686176652061646D696E20726F6C650000000000 PUSH1 0x44 DUP3 ADD MSTORE PUSH1 0x64 ADD PUSH2 0xAA5 JUMP JUMPDEST PUSH1 0x18 SLOAD PUSH3 0x10000 SWAP1 DIV PUSH1 0xFF AND PUSH2 0x13FF JUMPI PUSH1 0x40 MLOAD PUSH3 0x461BCD PUSH1 0xE5 SHL DUP2 MSTORE PUSH1 0x20 PUSH1 0x4 DUP3 ADD MSTORE PUSH1 0x15 PUSH1 0x24 DUP3 ADD MSTORE PUSH21 0x4D696E74696E67206E6F7420656E61626C65642021 PUSH1 0x58 SHL PUSH1 0x44 DUP3 ADD MSTORE PUSH1 0x64 ADD PUSH2 0xAA5 JUMP JUMPDEST PUSH1 0x0 JUMPDEST DUP2 MLOAD DUP2 LT ISZERO PUSH2 0x1127 JUMPI PUSH2 0x143D DUP3 DUP3 DUP2 MLOAD DUP2 LT PUSH2 0x142E JUMPI PUSH4 0x4E487B71 PUSH1 0xE0 SHL PUSH1 0x0 MSTORE PUSH1 0x32 PUSH1 0x4 MSTORE PUSH1 0x24 PUSH1 0x0 REVERT JUMPDEST PUSH1 0x20 MUL PUSH1 0x20 ADD ADD MLOAD PUSH1 0x1 PUSH2 0x22E9 JUMP JUMPDEST DUP1 PUSH2 0x1447 DUP2 PUSH2 0x3114 JUMP JUMPDEST SWAP2 POP POP PUSH2 0x1402 JUMP JUMPDEST PUSH1 0x1 PUSH1 0x1 PUSH1 0xA0 SHL SUB DUP3 AND CALLER EQ ISZERO PUSH2 0x1479 JUMPI PUSH1 0x40 MLOAD PUSH4 0xB06307DB PUSH1 0xE0 SHL DUP2 MSTORE PUSH1 0x4 ADD PUSH1 0x40 MLOAD DUP1 SWAP2 SUB SWAP1 REVERT JUMPDEST CALLER PUSH1 0x0 DUP2 DUP2 MSTORE PUSH1 0xC PUSH1 0x20 SWAP1 DUP2 MSTORE PUSH1 0x40 DUP1 DUP4 KECCAK256 PUSH1 0x1 PUSH1 0x1 PUSH1 0xA0 SHL SUB DUP8 AND DUP1 DUP6 MSTORE SWAP1 DUP4 MSTORE SWAP3 DUP2 SWAP1 KECCAK256 DUP1 SLOAD PUSH1 0xFF NOT AND DUP7 ISZERO ISZERO SWAP1 DUP2 OR SWAP1 SWAP2 SSTORE SWAP1 MLOAD SWAP1 DUP2 MSTORE SWAP2 SWAP3 SWAP2 PUSH32 0x17307EAB39AB6107E8899845AD3D59BD9653F200F220920489CA2B5937696C31 SWAP2 ADD PUSH1 0x40 MLOAD DUP1 SWAP2 SUB SWAP1 LOG3 POP POP JUMP JUMPDEST PUSH1 0x16 SLOAD PUSH1 0x1 PUSH1 0x1 PUSH1 0xA0 SHL SUB AND CALLER PUSH1 0x1 PUSH1 0x1 PUSH1 0xA0 SHL SUB AND EQ DUP1 PUSH2 0x1511 JUMPI POP PUSH1 0x0 SLOAD PUSH1 0x1 PUSH1 0x1 PUSH1 0xA0 SHL SUB AND CALLER EQ JUMPDEST PUSH2 0x152D JUMPI PUSH1 0x40 MLOAD PUSH3 0x461BCD PUSH1 0xE5 SHL DUP2 MSTORE PUSH1 0x4 ADD PUSH2 0xAA5 SWAP1 PUSH2 0x2F85 JUMP JUMPDEST PUSH1 0x18 DUP1 SLOAD SWAP2 ISZERO ISZERO PUSH2 0x100 MUL PUSH2 0xFF00 NOT SWAP1 SWAP3 AND SWAP2 SWAP1 SWAP2 OR SWAP1 SSTORE JUMP JUMPDEST PUSH2 0x1552 DUP5 DUP5 DUP5 PUSH2 0x1BF0 JUMP JUMPDEST PUSH2 0x1564 DUP4 PUSH1 0x1 PUSH1 0x1 PUSH1 0xA0 SHL SUB AND PUSH2 0x2303 JUMP JUMPDEST DUP1 ISZERO PUSH2 0x1579 JUMPI POP PUSH2 0x1577 DUP5 DUP5 DUP5 DUP5 PUSH2 0x233A JUMP JUMPDEST ISZERO JUMPDEST ISZERO PUSH2 0x1597 JUMPI PUSH1 0x40 MLOAD PUSH4 0x68D2BF6B PUSH1 0xE1 SHL DUP2 MSTORE PUSH1 0x4 ADD PUSH1 0x40 MLOAD DUP1 SWAP2 SUB SWAP1 REVERT JUMPDEST POP POP POP POP JUMP JUMPDEST PUSH1 0x0 SLOAD PUSH1 0x1 PUSH1 0x1 PUSH1 0xA0 SHL SUB AND CALLER EQ DUP1 PUSH2 0x15C0 JUMPI POP PUSH1 0x16 SLOAD PUSH1 0x1 PUSH1 0x1 PUSH1 0xA0 SHL SUB AND CALLER EQ JUMPDEST PUSH2 0x15DC JUMPI PUSH1 0x40 MLOAD PUSH3 0x461BCD PUSH1 0xE5 SHL DUP2 MSTORE PUSH1 0x4 ADD PUSH2 0xAA5 SWAP1 PUSH2 0x2FB2 JUMP JUMPDEST PUSH1 0x0 JUMPDEST DUP2 MLOAD DUP2 LT ISZERO PUSH2 0x1127 JUMPI PUSH1 0x2 PUSH1 0x0 DUP4 DUP4 DUP2 MLOAD DUP2 LT PUSH2 0x160C JUMPI PUSH4 0x4E487B71 PUSH1 0xE0 SHL PUSH1 0x0 MSTORE PUSH1 0x32 PUSH1 0x4 MSTORE PUSH1 0x24 PUSH1 0x0 REVERT JUMPDEST PUSH1 0x20 SWAP1 DUP2 MUL SWAP2 SWAP1 SWAP2 ADD DUP2 ADD MLOAD PUSH1 0x1 PUSH1 0x1 PUSH1 0xA0 SHL SUB AND DUP3 MSTORE DUP2 ADD SWAP2 SWAP1 SWAP2 MSTORE PUSH1 0x40 ADD PUSH1 0x0 KECCAK256 SLOAD PUSH1 0xFF AND PUSH2 0x1649 JUMPI PUSH1 0x10 SLOAD PUSH2 0x1645 SWAP1 PUSH1 0x1 PUSH2 0x304B JUMP JUMPDEST PUSH1 0x10 SSTORE JUMPDEST PUSH1 0x1 PUSH1 0x2 PUSH1 0x0 DUP5 DUP5 DUP2 MLOAD DUP2 LT PUSH2 0x166F JUMPI PUSH4 0x4E487B71 PUSH1 0xE0 SHL PUSH1 0x0 MSTORE PUSH1 0x32 PUSH1 0x4 MSTORE PUSH1 0x24 PUSH1 0x0 REVERT JUMPDEST PUSH1 0x20 SWAP1 DUP2 MUL SWAP2 SWAP1 SWAP2 ADD DUP2 ADD MLOAD PUSH1 0x1 PUSH1 0x1 PUSH1 0xA0 SHL SUB AND DUP3 MSTORE DUP2 ADD SWAP2 SWAP1 SWAP2 MSTORE PUSH1 0x40 ADD PUSH1 0x0 KECCAK256 DUP1 SLOAD PUSH1 0xFF NOT AND SWAP2 ISZERO ISZERO SWAP2 SWAP1 SWAP2 OR SWAP1 SSTORE DUP1 PUSH2 0x16AB DUP2 PUSH2 0x3114 JUMP JUMPDEST SWAP2 POP POP PUSH2 0x15DF JUMP JUMPDEST PUSH1 0x3 PUSH1 0x20 MSTORE PUSH1 0x0 SWAP1 DUP2 MSTORE PUSH1 0x40 SWAP1 KECCAK256 DUP1 SLOAD PUSH2 0x16CC SWAP1 PUSH2 0x30D9 JUMP JUMPDEST DUP1 PUSH1 0x1F ADD PUSH1 0x20 DUP1 SWAP2 DIV MUL PUSH1 0x20 ADD PUSH1 0x40 MLOAD SWAP1 DUP2 ADD PUSH1 0x40 MSTORE DUP1 SWAP3 SWAP2 SWAP1 DUP2 DUP2 MSTORE PUSH1 0x20 ADD DUP3 DUP1 SLOAD PUSH2 0x16F8 SWAP1 PUSH2 0x30D9 JUMP JUMPDEST DUP1 ISZERO PUSH2 0x1745 JUMPI DUP1 PUSH1 0x1F LT PUSH2 0x171A JUMPI PUSH2 0x100 DUP1 DUP4 SLOAD DIV MUL DUP4 MSTORE SWAP2 PUSH1 0x20 ADD SWAP2 PUSH2 0x1745 JUMP JUMPDEST DUP3 ADD SWAP2 SWAP1 PUSH1 0x0 MSTORE PUSH1 0x20 PUSH1 0x0 KECCAK256 SWAP1 JUMPDEST DUP2 SLOAD DUP2 MSTORE SWAP1 PUSH1 0x1 ADD SWAP1 PUSH1 0x20 ADD DUP1 DUP4 GT PUSH2 0x1728 JUMPI DUP3 SWAP1 SUB PUSH1 0x1F AND DUP3 ADD SWAP2 JUMPDEST POP POP POP POP POP DUP2 JUMP JUMPDEST PUSH1 0x60 PUSH2 0x1758 DUP3 PUSH2 0x1B68 JUMP JUMPDEST PUSH2 0x1775 JUMPI PUSH1 0x40 MLOAD PUSH4 0xA14C4B5 PUSH1 0xE4 SHL DUP2 MSTORE PUSH1 0x4 ADD PUSH1 0x40 MLOAD DUP1 SWAP2 SUB SWAP1 REVERT JUMPDEST PUSH1 0x0 PUSH2 0x177F PUSH2 0x11F9 JUMP JUMPDEST SWAP1 POP DUP1 MLOAD PUSH1 0x0 EQ ISZERO PUSH2 0x17A0 JUMPI PUSH1 0x40 MLOAD DUP1 PUSH1 0x20 ADD PUSH1 0x40 MSTORE DUP1 PUSH1 0x0 DUP2 MSTORE POP PUSH2 0x17CB JUMP JUMPDEST DUP1 PUSH2 0x17AA DUP5 PUSH2 0x242E JUMP JUMPDEST PUSH1 0x40 MLOAD PUSH1 0x20 ADD PUSH2 0x17BB SWAP3 SWAP2 SWAP1 PUSH2 0x2E6E JUMP JUMPDEST PUSH1 0x40 MLOAD PUSH1 0x20 DUP2 DUP4 SUB SUB DUP2 MSTORE SWAP1 PUSH1 0x40 MSTORE JUMPDEST SWAP4 SWAP3 POP POP POP JUMP JUMPDEST PUSH1 0x16 SLOAD PUSH1 0x1 PUSH1 0x1 PUSH1 0xA0 SHL SUB AND CALLER PUSH1 0x1 PUSH1 0x1 PUSH1 0xA0 SHL SUB AND EQ DUP1 PUSH2 0x17FE JUMPI POP PUSH1 0x0 SLOAD PUSH1 0x1 PUSH1 0x1 PUSH1 0xA0 SHL SUB AND CALLER EQ JUMPDEST PUSH2 0x181A JUMPI PUSH1 0x40 MLOAD PUSH3 0x461BCD PUSH1 0xE5 SHL DUP2 MSTORE PUSH1 0x4 ADD PUSH2 0xAA5 SWAP1 PUSH2 0x2F85 JUMP JUMPDEST PUSH1 0x13 SSTORE JUMP JUMPDEST PUSH2 0xD2E DUP4 DUP4 DUP4 PUSH2 0x1DDB JUMP JUMPDEST PUSH1 0x0 DUP3 DUP2 JUMPDEST DUP6 MLOAD DUP2 LT ISZERO PUSH2 0x1993 JUMPI PUSH1 0x0 DUP7 DUP3 DUP2 MLOAD DUP2 LT PUSH2 0x185A JUMPI PUSH4 0x4E487B71 PUSH1 0xE0 SHL PUSH1 0x0 MSTORE PUSH1 0x32 PUSH1 0x4 MSTORE PUSH1 0x24 PUSH1 0x0 REVERT JUMPDEST PUSH1 0x20 MUL PUSH1 0x20 ADD ADD MLOAD SWAP1 POP DUP5 DUP3 DUP2 MLOAD DUP2 LT PUSH2 0x1884 JUMPI PUSH4 0x4E487B71 PUSH1 0xE0 SHL PUSH1 0x0 MSTORE PUSH1 0x32 PUSH1 0x4 MSTORE PUSH1 0x24 PUSH1 0x0 REVERT JUMPDEST PUSH1 0x20 MUL PUSH1 0x20 ADD ADD MLOAD PUSH1 0x1 EQ ISZERO PUSH2 0x190C JUMPI PUSH1 0x40 DUP1 MLOAD PUSH1 0x20 DUP2 ADD DUP6 SWAP1 MSTORE SWAP1 DUP2 ADD DUP3 SWAP1 MSTORE PUSH1 0x2 SWAP1 PUSH1 0x60 ADD PUSH1 0x40 DUP1 MLOAD PUSH1 0x1F NOT DUP2 DUP5 SUB ADD DUP2 MSTORE SWAP1 DUP3 SWAP1 MSTORE PUSH2 0x18C5 SWAP2 PUSH2 0x2E52 JUMP JUMPDEST PUSH1 0x20 PUSH1 0x40 MLOAD DUP1 DUP4 SUB DUP2 DUP6 GAS STATICCALL ISZERO DUP1 ISZERO PUSH2 0x18E2 JUMPI RETURNDATASIZE PUSH1 0x0 DUP1 RETURNDATACOPY RETURNDATASIZE PUSH1 0x0 REVERT JUMPDEST POP POP POP PUSH1 0x40 MLOAD RETURNDATASIZE PUSH1 0x1F NOT PUSH1 0x1F DUP3 ADD AND DUP3 ADD DUP1 PUSH1 0x40 MSTORE POP DUP2 ADD SWAP1 PUSH2 0x1905 SWAP2 SWAP1 PUSH2 0x2CC9 JUMP JUMPDEST SWAP3 POP PUSH2 0x1980 JUMP JUMPDEST PUSH1 0x40 DUP1 MLOAD PUSH1 0x20 DUP2 ADD DUP4 SWAP1 MSTORE SWAP1 DUP2 ADD DUP5 SWAP1 MSTORE PUSH1 0x2 SWAP1 PUSH1 0x60 ADD PUSH1 0x40 DUP1 MLOAD PUSH1 0x1F NOT DUP2 DUP5 SUB ADD DUP2 MSTORE SWAP1 DUP3 SWAP1 MSTORE PUSH2 0x193D SWAP2 PUSH2 0x2E52 JUMP JUMPDEST PUSH1 0x20 PUSH1 0x40 MLOAD DUP1 DUP4 SUB DUP2 DUP6 GAS STATICCALL ISZERO DUP1 ISZERO PUSH2 0x195A JUMPI RETURNDATASIZE PUSH1 0x0 DUP1 RETURNDATACOPY RETURNDATASIZE PUSH1 0x0 REVERT JUMPDEST POP POP POP PUSH1 0x40 MLOAD RETURNDATASIZE PUSH1 0x1F NOT PUSH1 0x1F DUP3 ADD AND DUP3 ADD DUP1 PUSH1 0x40 MSTORE POP DUP2 ADD SWAP1 PUSH2 0x197D SWAP2 SWAP1 PUSH2 0x2CC9 JUMP JUMPDEST SWAP3 POP JUMPDEST POP DUP1 PUSH2 0x198B DUP2 PUSH2 0x3114 JUMP JUMPDEST SWAP2 POP POP PUSH2 0x182F JUMP JUMPDEST POP PUSH1 0xE SLOAD EQ SWAP5 SWAP4 POP POP POP POP JUMP JUMPDEST PUSH1 0x16 SLOAD PUSH1 0x1 PUSH1 0x1 PUSH1 0xA0 SHL SUB AND CALLER PUSH1 0x1 PUSH1 0x1 PUSH1 0xA0 SHL SUB AND EQ DUP1 PUSH2 0x19CC JUMPI POP PUSH1 0x0 SLOAD PUSH1 0x1 PUSH1 0x1 PUSH1 0xA0 SHL SUB AND CALLER EQ JUMPDEST PUSH2 0x19E8 JUMPI PUSH1 0x40 MLOAD PUSH3 0x461BCD PUSH1 0xE5 SHL DUP2 MSTORE PUSH1 0x4 ADD PUSH2 0xAA5 SWAP1 PUSH2 0x2F85 JUMP JUMPDEST PUSH1 0xE SSTORE JUMP JUMPDEST PUSH1 0x0 SLOAD PUSH1 0x1 PUSH1 0x1 PUSH1 0xA0 SHL SUB AND CALLER EQ DUP1 PUSH2 0x1A10 JUMPI POP PUSH1 0x16 SLOAD PUSH1 0x1 PUSH1 0x1 PUSH1 0xA0 SHL SUB AND CALLER EQ JUMPDEST PUSH2 0x1A2C JUMPI PUSH1 0x40 MLOAD PUSH3 0x461BCD PUSH1 0xE5 SHL DUP2 MSTORE PUSH1 0x4 ADD PUSH2 0xAA5 SWAP1 PUSH2 0x2F37 JUMP JUMPDEST PUSH1 0x14 SSTORE JUMP JUMPDEST PUSH1 0x60 PUSH2 0x1A3B PUSH2 0x11F9 JUMP JUMPDEST PUSH1 0x40 MLOAD PUSH1 0x20 ADD PUSH2 0x1A4B SWAP2 SWAP1 PUSH2 0x2EAD JUMP JUMPDEST PUSH1 0x40 MLOAD PUSH1 0x20 DUP2 DUP4 SUB SUB DUP2 MSTORE SWAP1 PUSH1 0x40 MSTORE SWAP1 POP SWAP1 JUMP JUMPDEST PUSH1 0x1 PUSH1 0x1 PUSH1 0xA0 SHL SUB SWAP2 DUP3 AND PUSH1 0x0 SWAP1 DUP2 MSTORE PUSH1 0xC PUSH1 0x20 SWAP1 DUP2 MSTORE PUSH1 0x40 DUP1 DUP4 KECCAK256 SWAP4 SWAP1 SWAP5 AND DUP3 MSTORE SWAP2 SWAP1 SWAP2 MSTORE KECCAK256 SLOAD PUSH1 0xFF AND SWAP1 JUMP JUMPDEST PUSH1 0x0 SLOAD PUSH1 0x1 PUSH1 0x1 PUSH1 0xA0 SHL SUB AND CALLER EQ PUSH2 0x1AE7 JUMPI PUSH1 0x40 MLOAD PUSH3 0x461BCD PUSH1 0xE5 SHL DUP2 MSTORE PUSH1 0x20 PUSH1 0x4 DUP3 ADD DUP2 SWAP1 MSTORE PUSH1 0x24 DUP3 ADD MSTORE PUSH32 0x4F776E61626C653A2063616C6C6572206973206E6F7420746865206F776E6572 PUSH1 0x44 DUP3 ADD MSTORE PUSH1 0x64 ADD PUSH2 0xAA5 JUMP JUMPDEST PUSH1 0x1 PUSH1 0x1 PUSH1 0xA0 SHL SUB DUP2 AND PUSH2 0x1B4C JUMPI PUSH1 0x40 MLOAD PUSH3 0x461BCD PUSH1 0xE5 SHL DUP2 MSTORE PUSH1 0x20 PUSH1 0x4 DUP3 ADD MSTORE PUSH1 0x26 PUSH1 0x24 DUP3 ADD MSTORE PUSH32 0x4F776E61626C653A206E6577206F776E657220697320746865207A65726F2061 PUSH1 0x44 DUP3 ADD MSTORE PUSH6 0x646472657373 PUSH1 0xD0 SHL PUSH1 0x64 DUP3 ADD MSTORE PUSH1 0x84 ADD PUSH2 0xAA5 JUMP JUMPDEST PUSH2 0xD7B DUP2 PUSH2 0x2299 JUMP JUMPDEST DUP1 MLOAD PUSH2 0x1127 SWAP1 PUSH1 0x8 SWAP1 PUSH1 0x20 DUP5 ADD SWAP1 PUSH2 0x2850 JUMP JUMPDEST PUSH1 0x0 PUSH1 0x4 SLOAD DUP3 LT DUP1 ISZERO PUSH2 0xA60 JUMPI POP POP PUSH1 0x0 SWAP1 DUP2 MSTORE PUSH1 0x9 PUSH1 0x20 MSTORE PUSH1 0x40 SWAP1 KECCAK256 SLOAD PUSH1 0x1 PUSH1 0xE0 SHL SWAP1 DIV PUSH1 0xFF AND ISZERO SWAP1 JUMP JUMPDEST PUSH1 0x0 DUP3 DUP2 MSTORE PUSH1 0xB PUSH1 0x20 MSTORE PUSH1 0x40 DUP1 DUP3 KECCAK256 DUP1 SLOAD PUSH1 0x1 PUSH1 0x1 PUSH1 0xA0 SHL SUB NOT AND PUSH1 0x1 PUSH1 0x1 PUSH1 0xA0 SHL SUB DUP8 DUP2 AND SWAP2 DUP3 OR SWAP1 SWAP3 SSTORE SWAP2 MLOAD DUP6 SWAP4 SWAP2 DUP6 AND SWAP2 PUSH32 0x8C5BE1E5EBEC7D5BD14F71427D1E84F3DD0314C0F7B2291E5B200AC8C7C3B925 SWAP2 LOG4 POP POP POP JUMP JUMPDEST PUSH1 0x0 PUSH2 0x1BFB DUP3 PUSH2 0x217F JUMP JUMPDEST SWAP1 POP DUP4 PUSH1 0x1 PUSH1 0x1 PUSH1 0xA0 SHL SUB AND DUP2 PUSH1 0x0 ADD MLOAD PUSH1 0x1 PUSH1 0x1 PUSH1 0xA0 SHL SUB AND EQ PUSH2 0x1C32 JUMPI PUSH1 0x40 MLOAD PUSH3 0xA11481 PUSH1 0xE8 SHL DUP2 MSTORE PUSH1 0x4 ADD PUSH1 0x40 MLOAD DUP1 SWAP2 SUB SWAP1 REVERT JUMPDEST PUSH1 0x0 CALLER PUSH1 0x1 PUSH1 0x1 PUSH1 0xA0 SHL SUB DUP7 AND EQ DUP1 PUSH2 0x1C50 JUMPI POP PUSH2 0x1C50 DUP6 CALLER PUSH2 0x1A5F JUMP JUMPDEST DUP1 PUSH2 0x1C6B JUMPI POP CALLER PUSH2 0x1C60 DUP5 PUSH2 0xC61 JUMP JUMPDEST PUSH1 0x1 PUSH1 0x1 PUSH1 0xA0 SHL SUB AND EQ JUMPDEST SWAP1 POP DUP1 PUSH2 0x1C8B JUMPI PUSH1 0x40 MLOAD PUSH4 0x2CE44B5F PUSH1 0xE1 SHL DUP2 MSTORE PUSH1 0x4 ADD PUSH1 0x40 MLOAD DUP1 SWAP2 SUB SWAP1 REVERT JUMPDEST PUSH1 0x1 PUSH1 0x1 PUSH1 0xA0 SHL SUB DUP5 AND PUSH2 0x1CB2 JUMPI PUSH1 0x40 MLOAD PUSH4 0x3A954ECD PUSH1 0xE2 SHL DUP2 MSTORE PUSH1 0x4 ADD PUSH1 0x40 MLOAD DUP1 SWAP2 SUB SWAP1 REVERT JUMPDEST PUSH2 0x1CBE PUSH1 0x0 DUP5 DUP8 PUSH2 0x1B94 JUMP JUMPDEST PUSH1 0x1 PUSH1 0x1 PUSH1 0xA0 SHL SUB DUP6 DUP2 AND PUSH1 0x0 SWAP1 DUP2 MSTORE PUSH1 0xA PUSH1 0x20 SWAP1 DUP2 MSTORE PUSH1 0x40 DUP1 DUP4 KECCAK256 DUP1 SLOAD PUSH8 0xFFFFFFFFFFFFFFFF NOT DUP1 DUP3 AND PUSH1 0x1 PUSH1 0x1 PUSH1 0x40 SHL SUB SWAP3 DUP4 AND PUSH1 0x0 NOT ADD DUP4 AND OR SWAP1 SWAP3 SSTORE DUP10 DUP7 AND DUP1 DUP7 MSTORE DUP4 DUP7 KECCAK256 DUP1 SLOAD SWAP4 DUP5 AND SWAP4 DUP4 AND PUSH1 0x1 SWAP1 DUP2 ADD DUP5 AND SWAP5 SWAP1 SWAP5 OR SWAP1 SSTORE DUP10 DUP7 MSTORE PUSH1 0x9 SWAP1 SWAP5 MSTORE DUP3 DUP6 KECCAK256 DUP1 SLOAD PUSH1 0x1 PUSH1 0x1 PUSH1 0xE0 SHL SUB NOT AND SWAP1 SWAP5 OR PUSH1 0x1 PUSH1 0xA0 SHL TIMESTAMP SWAP1 SWAP3 AND SWAP2 SWAP1 SWAP2 MUL OR DUP4 SSTORE DUP8 ADD DUP1 DUP5 MSTORE SWAP3 KECCAK256 DUP1 SLOAD SWAP2 SWAP4 SWAP1 SWAP2 AND PUSH2 0x1D92 JUMPI PUSH1 0x4 SLOAD DUP3 EQ PUSH2 0x1D92 JUMPI DUP1 SLOAD PUSH1 0x20 DUP7 ADD MLOAD PUSH1 0x1 PUSH1 0x1 PUSH1 0x40 SHL SUB AND PUSH1 0x1 PUSH1 0xA0 SHL MUL PUSH1 0x1 PUSH1 0x1 PUSH1 0xE0 SHL SUB NOT SWAP1 SWAP2 AND PUSH1 0x1 PUSH1 0x1 PUSH1 0xA0 SHL SUB DUP11 AND OR OR DUP2 SSTORE JUMPDEST POP POP POP DUP3 DUP5 PUSH1 0x1 PUSH1 0x1 PUSH1 0xA0 SHL SUB AND DUP7 PUSH1 0x1 PUSH1 0x1 PUSH1 0xA0 SHL SUB AND PUSH32 0xDDF252AD1BE2C89B69C2B068FC378DAA952BA7F163C4A11628F55A4DF523B3EF PUSH1 0x40 MLOAD PUSH1 0x40 MLOAD DUP1 SWAP2 SUB SWAP1 LOG4 PUSH2 0xF50 JUMP JUMPDEST PUSH1 0x1 PUSH1 0x1 PUSH1 0xA0 SHL SUB DUP4 AND PUSH1 0x0 SWAP1 DUP2 MSTORE PUSH1 0x2 PUSH1 0x20 MSTORE PUSH1 0x40 SWAP1 KECCAK256 SLOAD PUSH1 0xFF AND DUP1 PUSH2 0x1E05 JUMPI POP PUSH1 0x18 SLOAD PUSH1 0xFF AND ISZERO JUMPDEST PUSH2 0x1E4A JUMPI PUSH1 0x40 MLOAD PUSH3 0x461BCD PUSH1 0xE5 SHL DUP2 MSTORE PUSH1 0x20 PUSH1 0x4 DUP3 ADD MSTORE PUSH1 0x16 PUSH1 0x24 DUP3 ADD MSTORE PUSH22 0x55736572206E6F742077686974656C69737465642021 PUSH1 0x50 SHL PUSH1 0x44 DUP3 ADD MSTORE PUSH1 0x64 ADD PUSH2 0xAA5 JUMP JUMPDEST PUSH1 0x18 SLOAD PUSH3 0x10000 SWAP1 DIV PUSH1 0xFF AND PUSH2 0x1E9A JUMPI PUSH1 0x40 MLOAD PUSH3 0x461BCD PUSH1 0xE5 SHL DUP2 MSTORE PUSH1 0x20 PUSH1 0x4 DUP3 ADD MSTORE PUSH1 0x15 PUSH1 0x24 DUP3 ADD MSTORE PUSH21 0x4D696E74696E67206E6F7420656E61626C65642021 PUSH1 0x58 SHL PUSH1 0x44 DUP3 ADD MSTORE PUSH1 0x64 ADD PUSH2 0xAA5 JUMP JUMPDEST PUSH1 0x13 SLOAD DUP3 GT ISZERO PUSH2 0x1EEC JUMPI PUSH1 0x40 MLOAD PUSH3 0x461BCD PUSH1 0xE5 SHL DUP2 MSTORE PUSH1 0x20 PUSH1 0x4 DUP3 ADD MSTORE PUSH1 0x19 PUSH1 0x24 DUP3 ADD MSTORE PUSH32 0x6D61785065725472616E73616374696F6E207265616368656400000000000000 PUSH1 0x44 DUP3 ADD MSTORE PUSH1 0x64 ADD PUSH2 0xAA5 JUMP JUMPDEST PUSH1 0x0 PUSH2 0x1EFB PUSH1 0x5 SLOAD PUSH1 0x4 SLOAD SUB SWAP1 JUMP JUMPDEST SWAP1 POP PUSH2 0x1F06 PUSH1 0x11 SLOAD SWAP1 JUMP JUMPDEST PUSH2 0x1F10 DUP3 DUP6 PUSH2 0x2547 JUMP JUMPDEST GT ISZERO PUSH2 0x1F53 JUMPI PUSH1 0x40 MLOAD PUSH3 0x461BCD PUSH1 0xE5 SHL DUP2 MSTORE PUSH1 0x20 PUSH1 0x4 DUP3 ADD MSTORE PUSH1 0x12 PUSH1 0x24 DUP3 ADD MSTORE PUSH18 0x13585E081CDD5C1C1B1E481C995858DA1959 PUSH1 0x72 SHL PUSH1 0x44 DUP3 ADD MSTORE PUSH1 0x64 ADD PUSH2 0xAA5 JUMP JUMPDEST PUSH1 0x0 PUSH2 0x1F5E DUP6 PUSH2 0x1272 JUMP JUMPDEST SWAP1 POP PUSH2 0x1F69 PUSH1 0x14 SLOAD SWAP1 JUMP JUMPDEST PUSH2 0x1F73 DUP3 DUP7 PUSH2 0x2547 JUMP JUMPDEST GT ISZERO PUSH2 0x1FC1 JUMPI PUSH1 0x40 MLOAD PUSH3 0x461BCD PUSH1 0xE5 SHL DUP2 MSTORE PUSH1 0x20 PUSH1 0x4 DUP3 ADD MSTORE PUSH1 0x1A PUSH1 0x24 DUP3 ADD MSTORE PUSH32 0x4D6178204E46547320726561636865642062792077616C6C6574000000000000 PUSH1 0x44 DUP3 ADD MSTORE PUSH1 0x64 ADD PUSH2 0xAA5 JUMP JUMPDEST PUSH2 0x1FD4 DUP5 PUSH2 0x1FCE PUSH1 0x12 SLOAD SWAP1 JUMP JUMPDEST SWAP1 PUSH2 0x25A6 JUMP JUMPDEST CALLVALUE LT ISZERO PUSH2 0x2017 JUMPI PUSH1 0x40 MLOAD PUSH3 0x461BCD PUSH1 0xE5 SHL DUP2 MSTORE PUSH1 0x20 PUSH1 0x4 DUP3 ADD MSTORE PUSH1 0x11 PUSH1 0x24 DUP3 ADD MSTORE PUSH17 0x496E73756666696369656E742066656573 PUSH1 0x78 SHL PUSH1 0x44 DUP3 ADD MSTORE PUSH1 0x64 ADD PUSH2 0xAA5 JUMP JUMPDEST PUSH1 0x15 SLOAD PUSH1 0x40 MLOAD PUSH1 0x0 SWAP2 PUSH1 0x1 PUSH1 0x1 PUSH1 0xA0 SHL SUB AND SWAP1 CALLVALUE SWAP1 DUP4 DUP2 DUP2 DUP2 DUP6 DUP8 GAS CALL SWAP3 POP POP POP RETURNDATASIZE DUP1 PUSH1 0x0 DUP2 EQ PUSH2 0x2064 JUMPI PUSH1 0x40 MLOAD SWAP2 POP PUSH1 0x1F NOT PUSH1 0x3F RETURNDATASIZE ADD AND DUP3 ADD PUSH1 0x40 MSTORE RETURNDATASIZE DUP3 MSTORE RETURNDATASIZE PUSH1 0x0 PUSH1 0x20 DUP5 ADD RETURNDATACOPY PUSH2 0x2069 JUMP JUMPDEST PUSH1 0x60 SWAP2 POP JUMPDEST POP POP SWAP1 POP DUP1 PUSH2 0x20E0 JUMPI PUSH1 0x40 MLOAD PUSH3 0x461BCD PUSH1 0xE5 SHL DUP2 MSTORE PUSH1 0x20 PUSH1 0x4 DUP3 ADD MSTORE PUSH1 0x3A PUSH1 0x24 DUP3 ADD MSTORE PUSH32 0x416464726573733A20756E61626C6520746F2073656E642076616C75652C2072 PUSH1 0x44 DUP3 ADD MSTORE PUSH32 0x6563697069656E74206D61792068617665207265766572746564000000000000 PUSH1 0x64 DUP3 ADD MSTORE PUSH1 0x84 ADD PUSH2 0xAA5 JUMP JUMPDEST PUSH1 0xF SLOAD PUSH2 0x20ED SWAP1 CALLVALUE PUSH2 0x2547 JUMP JUMPDEST PUSH1 0xF SSTORE PUSH2 0x20FB DUP7 PUSH1 0x1 PUSH2 0x22E9 JUMP JUMPDEST PUSH2 0x2105 PUSH1 0x1A PUSH2 0x2625 JUMP JUMPDEST DUP4 PUSH1 0x3 PUSH1 0x0 PUSH2 0x2113 PUSH1 0x1A SLOAD SWAP1 JUMP JUMPDEST DUP2 MSTORE PUSH1 0x20 ADD SWAP1 DUP2 MSTORE PUSH1 0x20 ADD PUSH1 0x0 KECCAK256 SWAP1 DUP1 MLOAD SWAP1 PUSH1 0x20 ADD SWAP1 PUSH2 0x2134 SWAP3 SWAP2 SWAP1 PUSH2 0x2850 JUMP JUMPDEST POP POP POP POP POP POP POP JUMP JUMPDEST PUSH1 0x0 PUSH2 0x17CB DUP4 DUP4 PUSH1 0x40 MLOAD DUP1 PUSH1 0x40 ADD PUSH1 0x40 MSTORE DUP1 PUSH1 0x1E DUP2 MSTORE PUSH1 0x20 ADD PUSH32 0x536166654D6174683A207375627472616374696F6E206F766572666C6F770000 DUP2 MSTORE POP PUSH2 0x263A JUMP JUMPDEST PUSH1 0x40 DUP1 MLOAD PUSH1 0x60 DUP2 ADD DUP3 MSTORE PUSH1 0x0 DUP1 DUP3 MSTORE PUSH1 0x20 DUP3 ADD DUP2 SWAP1 MSTORE SWAP2 DUP2 ADD SWAP2 SWAP1 SWAP2 MSTORE DUP2 PUSH1 0x4 SLOAD DUP2 LT ISZERO PUSH2 0x2280 JUMPI PUSH1 0x0 DUP2 DUP2 MSTORE PUSH1 0x9 PUSH1 0x20 SWAP1 DUP2 MSTORE PUSH1 0x40 SWAP2 DUP3 SWAP1 KECCAK256 DUP3 MLOAD PUSH1 0x60 DUP2 ADD DUP5 MSTORE SWAP1 SLOAD PUSH1 0x1 PUSH1 0x1 PUSH1 0xA0 SHL SUB DUP2 AND DUP3 MSTORE PUSH1 0x1 PUSH1 0xA0 SHL DUP2 DIV PUSH1 0x1 PUSH1 0x1 PUSH1 0x40 SHL SUB AND SWAP3 DUP3 ADD SWAP3 SWAP1 SWAP3 MSTORE PUSH1 0x1 PUSH1 0xE0 SHL SWAP1 SWAP2 DIV PUSH1 0xFF AND ISZERO ISZERO SWAP2 DUP2 ADD DUP3 SWAP1 MSTORE SWAP1 PUSH2 0x227E JUMPI DUP1 MLOAD PUSH1 0x1 PUSH1 0x1 PUSH1 0xA0 SHL SUB AND ISZERO PUSH2 0x2215 JUMPI SWAP4 SWAP3 POP POP POP JUMP JUMPDEST POP PUSH1 0x0 NOT ADD PUSH1 0x0 DUP2 DUP2 MSTORE PUSH1 0x9 PUSH1 0x20 SWAP1 DUP2 MSTORE PUSH1 0x40 SWAP2 DUP3 SWAP1 KECCAK256 DUP3 MLOAD PUSH1 0x60 DUP2 ADD DUP5 MSTORE SWAP1 SLOAD PUSH1 0x1 PUSH1 0x1 PUSH1 0xA0 SHL SUB DUP2 AND DUP1 DUP4 MSTORE PUSH1 0x1 PUSH1 0xA0 SHL DUP3 DIV PUSH1 0x1 PUSH1 0x1 PUSH1 0x40 SHL SUB AND SWAP4 DUP4 ADD SWAP4 SWAP1 SWAP4 MSTORE PUSH1 0x1 PUSH1 0xE0 SHL SWAP1 DIV PUSH1 0xFF AND ISZERO ISZERO SWAP3 DUP2 ADD SWAP3 SWAP1 SWAP3 MSTORE ISZERO PUSH2 0x2279 JUMPI SWAP4 SWAP3 POP POP POP JUMP JUMPDEST PUSH2 0x2215 JUMP JUMPDEST POP JUMPDEST PUSH1 0x40 MLOAD PUSH4 0x6F96CDA1 PUSH1 0xE1 SHL DUP2 MSTORE PUSH1 0x4 ADD PUSH1 0x40 MLOAD DUP1 SWAP2 SUB SWAP1 REVERT JUMPDEST PUSH1 0x0 DUP1 SLOAD PUSH1 0x1 PUSH1 0x1 PUSH1 0xA0 SHL SUB DUP4 DUP2 AND PUSH1 0x1 PUSH1 0x1 PUSH1 0xA0 SHL SUB NOT DUP4 AND DUP2 OR DUP5 SSTORE PUSH1 0x40 MLOAD SWAP2 SWAP1 SWAP3 AND SWAP3 DUP4 SWAP2 PUSH32 0x8BE0079C531659141344CD1FD0A4F28419497F9722A3DAAFE3B4186F6B6457E0 SWAP2 SWAP1 LOG3 POP POP JUMP JUMPDEST PUSH2 0x1127 DUP3 DUP3 PUSH1 0x40 MLOAD DUP1 PUSH1 0x20 ADD PUSH1 0x40 MSTORE DUP1 PUSH1 0x0 DUP2 MSTORE POP PUSH2 0x2674 JUMP JUMPDEST PUSH1 0x0 DUP2 EXTCODEHASH PUSH32 0xC5D2460186F7233C927E7DB2DCC703C0E500B653CA82273B7BFAD8045D85A470 DUP2 ISZERO DUP1 ISZERO SWAP1 PUSH2 0xDC7 JUMPI POP EQ ISZERO SWAP3 SWAP2 POP POP JUMP JUMPDEST PUSH1 0x40 MLOAD PUSH4 0xA85BD01 PUSH1 0xE1 SHL DUP2 MSTORE PUSH1 0x0 SWAP1 PUSH1 0x1 PUSH1 0x1 PUSH1 0xA0 SHL SUB DUP6 AND SWAP1 PUSH4 0x150B7A02 SWAP1 PUSH2 0x236F SWAP1 CALLER SWAP1 DUP10 SWAP1 DUP9 SWAP1 DUP9 SWAP1 PUSH1 0x4 ADD PUSH2 0x2EE7 JUMP JUMPDEST PUSH1 0x20 PUSH1 0x40 MLOAD DUP1 DUP4 SUB DUP2 PUSH1 0x0 DUP8 DUP1 EXTCODESIZE ISZERO DUP1 ISZERO PUSH2 0x2389 JUMPI PUSH1 0x0 DUP1 REVERT JUMPDEST POP GAS CALL SWAP3 POP POP POP DUP1 ISZERO PUSH2 0x23B9 JUMPI POP PUSH1 0x40 DUP1 MLOAD PUSH1 0x1F RETURNDATASIZE SWAP1 DUP2 ADD PUSH1 0x1F NOT AND DUP3 ADD SWAP1 SWAP3 MSTORE PUSH2 0x23B6 SWAP2 DUP2 ADD SWAP1 PUSH2 0x2CFD JUMP JUMPDEST PUSH1 0x1 JUMPDEST PUSH2 0x2414 JUMPI RETURNDATASIZE DUP1 DUP1 ISZERO PUSH2 0x23E7 JUMPI PUSH1 0x40 MLOAD SWAP2 POP PUSH1 0x1F NOT PUSH1 0x3F RETURNDATASIZE ADD AND DUP3 ADD PUSH1 0x40 MSTORE RETURNDATASIZE DUP3 MSTORE RETURNDATASIZE PUSH1 0x0 PUSH1 0x20 DUP5 ADD RETURNDATACOPY PUSH2 0x23EC JUMP JUMPDEST PUSH1 0x60 SWAP2 POP JUMPDEST POP DUP1 MLOAD PUSH2 0x240C JUMPI PUSH1 0x40 MLOAD PUSH4 0x68D2BF6B PUSH1 0xE1 SHL DUP2 MSTORE PUSH1 0x4 ADD PUSH1 0x40 MLOAD DUP1 SWAP2 SUB SWAP1 REVERT JUMPDEST DUP1 MLOAD DUP2 PUSH1 0x20 ADD REVERT JUMPDEST PUSH1 0x1 PUSH1 0x1 PUSH1 0xE0 SHL SUB NOT AND PUSH4 0xA85BD01 PUSH1 0xE1 SHL EQ SWAP1 POP PUSH2 0xDC7 JUMP JUMPDEST PUSH1 0x60 DUP2 PUSH2 0x2452 JUMPI POP POP PUSH1 0x40 DUP1 MLOAD DUP1 DUP3 ADD SWAP1 SWAP2 MSTORE PUSH1 0x1 DUP2 MSTORE PUSH1 0x3 PUSH1 0xFC SHL PUSH1 0x20 DUP3 ADD MSTORE SWAP1 JUMP JUMPDEST DUP2 PUSH1 0x0 JUMPDEST DUP2 ISZERO PUSH2 0x247C JUMPI DUP1 PUSH2 0x2466 DUP2 PUSH2 0x3114 JUMP JUMPDEST SWAP2 POP PUSH2 0x2475 SWAP1 POP PUSH1 0xA DUP4 PUSH2 0x3063 JUMP JUMPDEST SWAP2 POP PUSH2 0x2456 JUMP JUMPDEST PUSH1 0x0 DUP2 PUSH1 0x1 PUSH1 0x1 PUSH1 0x40 SHL SUB DUP2 GT ISZERO PUSH2 0x24A4 JUMPI PUSH4 0x4E487B71 PUSH1 0xE0 SHL PUSH1 0x0 MSTORE PUSH1 0x41 PUSH1 0x4 MSTORE PUSH1 0x24 PUSH1 0x0 REVERT JUMPDEST PUSH1 0x40 MLOAD SWAP1 DUP1 DUP3 MSTORE DUP1 PUSH1 0x1F ADD PUSH1 0x1F NOT AND PUSH1 0x20 ADD DUP3 ADD PUSH1 0x40 MSTORE DUP1 ISZERO PUSH2 0x24CE JUMPI PUSH1 0x20 DUP3 ADD DUP2 DUP1 CALLDATASIZE DUP4 CALLDATACOPY ADD SWAP1 POP JUMPDEST POP SWAP1 POP JUMPDEST DUP5 ISZERO PUSH2 0xDC7 JUMPI PUSH2 0x24E3 PUSH1 0x1 DUP4 PUSH2 0x3096 JUMP JUMPDEST SWAP2 POP PUSH2 0x24F0 PUSH1 0xA DUP7 PUSH2 0x312F JUMP JUMPDEST PUSH2 0x24FB SWAP1 PUSH1 0x30 PUSH2 0x304B JUMP JUMPDEST PUSH1 0xF8 SHL DUP2 DUP4 DUP2 MLOAD DUP2 LT PUSH2 0x251E JUMPI PUSH4 0x4E487B71 PUSH1 0xE0 SHL PUSH1 0x0 MSTORE PUSH1 0x32 PUSH1 0x4 MSTORE PUSH1 0x24 PUSH1 0x0 REVERT JUMPDEST PUSH1 0x20 ADD ADD SWAP1 PUSH1 0x1 PUSH1 0x1 PUSH1 0xF8 SHL SUB NOT AND SWAP1 DUP2 PUSH1 0x0 BYTE SWAP1 MSTORE8 POP PUSH2 0x2540 PUSH1 0xA DUP7 PUSH2 0x3063 JUMP JUMPDEST SWAP5 POP PUSH2 0x24D2 JUMP JUMPDEST PUSH1 0x0 DUP1 PUSH2 0x2554 DUP4 DUP6 PUSH2 0x304B JUMP JUMPDEST SWAP1 POP DUP4 DUP2 LT ISZERO PUSH2 0x17CB JUMPI PUSH1 0x40 MLOAD PUSH3 0x461BCD PUSH1 0xE5 SHL DUP2 MSTORE PUSH1 0x20 PUSH1 0x4 DUP3 ADD MSTORE PUSH1 0x1B PUSH1 0x24 DUP3 ADD MSTORE PUSH32 0x536166654D6174683A206164646974696F6E206F766572666C6F770000000000 PUSH1 0x44 DUP3 ADD MSTORE PUSH1 0x64 ADD PUSH2 0xAA5 JUMP JUMPDEST PUSH1 0x0 DUP3 PUSH2 0x25B5 JUMPI POP PUSH1 0x0 PUSH2 0xA60 JUMP JUMPDEST PUSH1 0x0 PUSH2 0x25C1 DUP4 DUP6 PUSH2 0x3077 JUMP JUMPDEST SWAP1 POP DUP3 PUSH2 0x25CE DUP6 DUP4 PUSH2 0x3063 JUMP JUMPDEST EQ PUSH2 0x17CB JUMPI PUSH1 0x40 MLOAD PUSH3 0x461BCD PUSH1 0xE5 SHL DUP2 MSTORE PUSH1 0x20 PUSH1 0x4 DUP3 ADD MSTORE PUSH1 0x21 PUSH1 0x24 DUP3 ADD MSTORE PUSH32 0x536166654D6174683A206D756C7469706C69636174696F6E206F766572666C6F PUSH1 0x44 DUP3 ADD MSTORE PUSH1 0x77 PUSH1 0xF8 SHL PUSH1 0x64 DUP3 ADD MSTORE PUSH1 0x84 ADD PUSH2 0xAA5 JUMP JUMPDEST PUSH1 0x1 DUP2 PUSH1 0x0 ADD PUSH1 0x0 DUP3 DUP3 SLOAD PUSH2 0xB7A SWAP2 SWAP1 PUSH2 0x304B JUMP JUMPDEST PUSH1 0x0 DUP2 DUP5 DUP5 GT ISZERO PUSH2 0x265E JUMPI PUSH1 0x40 MLOAD PUSH3 0x461BCD PUSH1 0xE5 SHL DUP2 MSTORE PUSH1 0x4 ADD PUSH2 0xAA5 SWAP2 SWAP1 PUSH2 0x2F24 JUMP JUMPDEST POP PUSH1 0x0 PUSH2 0x266B DUP5 DUP7 PUSH2 0x3096 JUMP JUMPDEST SWAP6 SWAP5 POP POP POP POP POP JUMP JUMPDEST PUSH2 0xD2E DUP4 DUP4 DUP4 PUSH1 0x1 PUSH1 0x4 SLOAD PUSH1 0x1 PUSH1 0x1 PUSH1 0xA0 SHL SUB DUP6 AND PUSH2 0x26A5 JUMPI PUSH1 0x40 MLOAD PUSH3 0x2E0763 PUSH1 0xE8 SHL DUP2 MSTORE PUSH1 0x4 ADD PUSH1 0x40 MLOAD DUP1 SWAP2 SUB SWAP1 REVERT JUMPDEST DUP4 PUSH2 0x26C3 JUMPI PUSH1 0x40 MLOAD PUSH4 0xB562E8DD PUSH1 0xE0 SHL DUP2 MSTORE PUSH1 0x4 ADD PUSH1 0x40 MLOAD DUP1 SWAP2 SUB SWAP1 REVERT JUMPDEST PUSH1 0x1 PUSH1 0x1 PUSH1 0xA0 SHL SUB DUP6 AND PUSH1 0x0 DUP2 DUP2 MSTORE PUSH1 0xA PUSH1 0x20 SWAP1 DUP2 MSTORE PUSH1 0x40 DUP1 DUP4 KECCAK256 DUP1 SLOAD PUSH16 0xFFFFFFFFFFFFFFFFFFFFFFFFFFFFFFFF NOT DUP2 AND PUSH1 0x1 PUSH1 0x1 PUSH1 0x40 SHL SUB DUP1 DUP4 AND DUP13 ADD DUP2 AND SWAP2 DUP3 OR PUSH9 0x10000000000000000 PUSH8 0xFFFFFFFFFFFFFFFF NOT SWAP1 SWAP5 AND SWAP1 SWAP3 OR DUP4 SWAP1 DIV DUP2 AND DUP13 ADD DUP2 AND SWAP1 SWAP3 MUL OR SWAP1 SWAP2 SSTORE DUP6 DUP5 MSTORE PUSH1 0x9 SWAP1 SWAP3 MSTORE SWAP1 SWAP2 KECCAK256 DUP1 SLOAD PUSH1 0x1 PUSH1 0x1 PUSH1 0xE0 SHL SUB NOT AND SWAP1 SWAP3 OR PUSH1 0x1 PUSH1 0xA0 SHL TIMESTAMP SWAP1 SWAP3 AND SWAP2 SWAP1 SWAP2 MUL OR SWAP1 SSTORE DUP1 DUP1 DUP6 ADD DUP4 DUP1 ISZERO PUSH2 0x2778 JUMPI POP PUSH2 0x2778 DUP8 PUSH1 0x1 PUSH1 0x1 PUSH1 0xA0 SHL SUB AND PUSH2 0x2303 JUMP JUMPDEST ISZERO PUSH2 0x2801 JUMPI JUMPDEST PUSH1 0x40 MLOAD DUP3 SWAP1 PUSH1 0x1 PUSH1 0x1 PUSH1 0xA0 SHL SUB DUP10 AND SWAP1 PUSH1 0x0 SWAP1 PUSH32 0xDDF252AD1BE2C89B69C2B068FC378DAA952BA7F163C4A11628F55A4DF523B3EF SWAP1 DUP3 SWAP1 LOG4 PUSH2 0x27C9 PUSH1 0x0 DUP9 DUP5 DUP1 PUSH1 0x1 ADD SWAP6 POP DUP9 PUSH2 0x233A JUMP JUMPDEST PUSH2 0x27E6 JUMPI PUSH1 0x40 MLOAD PUSH4 0x68D2BF6B PUSH1 0xE1 SHL DUP2 MSTORE PUSH1 0x4 ADD PUSH1 0x40 MLOAD DUP1 SWAP2 SUB SWAP1 REVERT JUMPDEST DUP1 DUP3 EQ ISZERO PUSH2 0x277E JUMPI DUP3 PUSH1 0x4 SLOAD EQ PUSH2 0x27FC JUMPI PUSH1 0x0 DUP1 REVERT JUMPDEST PUSH2 0x2847 JUMP JUMPDEST JUMPDEST PUSH1 0x40 MLOAD PUSH1 0x1 DUP4 ADD SWAP3 SWAP1 PUSH1 0x1 PUSH1 0x1 PUSH1 0xA0 SHL SUB DUP10 AND SWAP1 PUSH1 0x0 SWAP1 PUSH32 0xDDF252AD1BE2C89B69C2B068FC378DAA952BA7F163C4A11628F55A4DF523B3EF SWAP1 DUP3 SWAP1 LOG4 DUP1 DUP3 EQ ISZERO PUSH2 0x2802 JUMPI JUMPDEST POP PUSH1 0x4 SSTORE PUSH2 0xF50 JUMP JUMPDEST DUP3 DUP1 SLOAD PUSH2 0x285C SWAP1 PUSH2 0x30D9 JUMP JUMPDEST SWAP1 PUSH1 0x0 MSTORE PUSH1 0x20 PUSH1 0x0 KECCAK256 SWAP1 PUSH1 0x1F ADD PUSH1 0x20 SWAP1 DIV DUP2 ADD SWAP3 DUP3 PUSH2 0x287E JUMPI PUSH1 0x0 DUP6 SSTORE PUSH2 0x28C4 JUMP JUMPDEST DUP3 PUSH1 0x1F LT PUSH2 0x2897 JUMPI DUP1 MLOAD PUSH1 0xFF NOT AND DUP4 DUP1 ADD OR DUP6 SSTORE PUSH2 0x28C4 JUMP JUMPDEST DUP3 DUP1 ADD PUSH1 0x1 ADD DUP6 SSTORE DUP3 ISZERO PUSH2 0x28C4 JUMPI SWAP2 DUP3 ADD JUMPDEST DUP3 DUP2 GT ISZERO PUSH2 0x28C4 JUMPI DUP3 MLOAD DUP3 SSTORE SWAP2 PUSH1 0x20 ADD SWAP2 SWAP1 PUSH1 0x1 ADD SWAP1 PUSH2 0x28A9 JUMP JUMPDEST POP PUSH2 0x28D0 SWAP3 SWAP2 POP PUSH2 0x28D4 JUMP JUMPDEST POP SWAP1 JUMP JUMPDEST JUMPDEST DUP1 DUP3 GT ISZERO PUSH2 0x28D0 JUMPI PUSH1 0x0 DUP2 SSTORE PUSH1 0x1 ADD PUSH2 0x28D5 JUMP JUMPDEST PUSH1 0x0 PUSH1 0x1 PUSH1 0x1 PUSH1 0x40 SHL SUB DUP4 GT ISZERO PUSH2 0x2902 JUMPI PUSH2 0x2902 PUSH2 0x316F JUMP JUMPDEST PUSH2 0x2915 PUSH1 0x1F DUP5 ADD PUSH1 0x1F NOT AND PUSH1 0x20 ADD PUSH2 0x2FF8 JUMP JUMPDEST SWAP1 POP DUP3 DUP2 MSTORE DUP4 DUP4 DUP4 ADD GT ISZERO PUSH2 0x2929 JUMPI PUSH1 0x0 DUP1 REVERT JUMPDEST DUP3 DUP3 PUSH1 0x20 DUP4 ADD CALLDATACOPY PUSH1 0x0 PUSH1 0x20 DUP5 DUP4 ADD ADD MSTORE SWAP4 SWAP3 POP POP POP JUMP JUMPDEST DUP1 CALLDATALOAD PUSH1 0x1 PUSH1 0x1 PUSH1 0xA0 SHL SUB DUP2 AND DUP2 EQ PUSH2 0x2957 JUMPI PUSH1 0x0 DUP1 REVERT JUMPDEST SWAP2 SWAP1 POP JUMP JUMPDEST PUSH1 0x0 DUP3 PUSH1 0x1F DUP4 ADD SLT PUSH2 0x296C JUMPI DUP1 DUP2 REVERT JUMPDEST DUP2 CALLDATALOAD PUSH1 0x20 PUSH2 0x2981 PUSH2 0x297C DUP4 PUSH2 0x3028 JUMP JUMPDEST PUSH2 0x2FF8 JUMP JUMPDEST DUP1 DUP4 DUP3 MSTORE DUP3 DUP3 ADD SWAP2 POP DUP3 DUP7 ADD DUP8 DUP5 DUP7 PUSH1 0x5 SHL DUP10 ADD ADD GT ISZERO PUSH2 0x29A0 JUMPI DUP6 DUP7 REVERT JUMPDEST DUP6 JUMPDEST DUP6 DUP2 LT ISZERO PUSH2 0x29BE JUMPI DUP2 CALLDATALOAD DUP5 MSTORE SWAP3 DUP5 ADD SWAP3 SWAP1 DUP5 ADD SWAP1 PUSH1 0x1 ADD PUSH2 0x29A2 JUMP JUMPDEST POP SWAP1 SWAP8 SWAP7 POP POP POP POP POP POP POP JUMP JUMPDEST DUP1 CALLDATALOAD DUP1 ISZERO ISZERO DUP2 EQ PUSH2 0x2957 JUMPI PUSH1 0x0 DUP1 REVERT JUMPDEST PUSH1 0x0 DUP3 PUSH1 0x1F DUP4 ADD SLT PUSH2 0x29EB JUMPI DUP1 DUP2 REVERT JUMPDEST PUSH2 0x17CB DUP4 DUP4 CALLDATALOAD PUSH1 0x20 DUP6 ADD PUSH2 0x28E9 JUMP JUMPDEST PUSH1 0x0 PUSH1 0x20 DUP3 DUP5 SUB SLT ISZERO PUSH2 0x2A0B JUMPI DUP1 DUP2 REVERT JUMPDEST PUSH2 0x17CB DUP3 PUSH2 0x2940 JUMP JUMPDEST PUSH1 0x0 DUP1 PUSH1 0x40 DUP4 DUP6 SUB SLT ISZERO PUSH2 0x2A26 JUMPI DUP1 DUP2 REVERT JUMPDEST PUSH2 0x2A2F DUP4 PUSH2 0x2940 JUMP JUMPDEST SWAP2 POP PUSH2 0x2A3D PUSH1 0x20 DUP5 ADD PUSH2 0x2940 JUMP JUMPDEST SWAP1 POP SWAP3 POP SWAP3 SWAP1 POP JUMP JUMPDEST PUSH1 0x0 DUP1 PUSH1 0x0 PUSH1 0x60 DUP5 DUP7 SUB SLT ISZERO PUSH2 0x2A5A JUMPI DUP1 DUP2 REVERT JUMPDEST PUSH2 0x2A63 DUP5 PUSH2 0x2940 JUMP JUMPDEST SWAP3 POP PUSH2 0x2A71 PUSH1 0x20 DUP6 ADD PUSH2 0x2940 JUMP JUMPDEST SWAP2 POP PUSH1 0x40 DUP5 ADD CALLDATALOAD SWAP1 POP SWAP3 POP SWAP3 POP SWAP3 JUMP JUMPDEST PUSH1 0x0 DUP1 PUSH1 0x0 DUP1 PUSH1 0x80 DUP6 DUP8 SUB SLT ISZERO PUSH2 0x2A96 JUMPI DUP1 DUP2 REVERT JUMPDEST PUSH2 0x2A9F DUP6 PUSH2 0x2940 JUMP JUMPDEST SWAP4 POP PUSH2 0x2AAD PUSH1 0x20 DUP7 ADD PUSH2 0x2940 JUMP JUMPDEST SWAP3 POP PUSH1 0x40 DUP6 ADD CALLDATALOAD SWAP2 POP PUSH1 0x60 DUP6 ADD CALLDATALOAD PUSH1 0x1 PUSH1 0x1 PUSH1 0x40 SHL SUB DUP2 GT ISZERO PUSH2 0x2ACE JUMPI DUP2 DUP3 REVERT JUMPDEST DUP6 ADD PUSH1 0x1F DUP2 ADD DUP8 SGT PUSH2 0x2ADE JUMPI DUP2 DUP3 REVERT JUMPDEST PUSH2 0x2AED DUP8 DUP3 CALLDATALOAD PUSH1 0x20 DUP5 ADD PUSH2 0x28E9 JUMP JUMPDEST SWAP2 POP POP SWAP3 SWAP6 SWAP2 SWAP5 POP SWAP3 POP JUMP JUMPDEST PUSH1 0x0 DUP1 PUSH1 0x40 DUP4 DUP6 SUB SLT ISZERO PUSH2 0x2B0B JUMPI DUP2 DUP3 REVERT JUMPDEST PUSH2 0x2B14 DUP4 PUSH2 0x2940 JUMP JUMPDEST SWAP2 POP PUSH2 0x2A3D PUSH1 0x20 DUP5 ADD PUSH2 0x29CB JUMP JUMPDEST PUSH1 0x0 DUP1 PUSH1 0x40 DUP4 DUP6 SUB SLT ISZERO PUSH2 0x2B34 JUMPI DUP2 DUP3 REVERT JUMPDEST PUSH2 0x2B3D DUP4 PUSH2 0x2940 JUMP JUMPDEST SWAP5 PUSH1 0x20 SWAP4 SWAP1 SWAP4 ADD CALLDATALOAD SWAP4 POP POP POP JUMP JUMPDEST PUSH1 0x0 DUP1 PUSH1 0x0 PUSH1 0x60 DUP5 DUP7 SUB SLT ISZERO PUSH2 0x2B5F JUMPI DUP1 DUP2 REVERT JUMPDEST PUSH2 0x2B68 DUP5 PUSH2 0x2940 JUMP JUMPDEST SWAP3 POP PUSH1 0x20 DUP5 ADD CALLDATALOAD SWAP2 POP PUSH1 0x40 DUP5 ADD CALLDATALOAD PUSH1 0x1 PUSH1 0x1 PUSH1 0x40 SHL SUB DUP2 GT ISZERO PUSH2 0x2B89 JUMPI DUP2 DUP3 REVERT JUMPDEST PUSH2 0x2B95 DUP7 DUP3 DUP8 ADD PUSH2 0x29DB JUMP JUMPDEST SWAP2 POP POP SWAP3 POP SWAP3 POP SWAP3 JUMP JUMPDEST PUSH1 0x0 PUSH1 0x20 DUP1 DUP4 DUP6 SUB SLT ISZERO PUSH2 0x2BB1 JUMPI DUP2 DUP3 REVERT JUMPDEST DUP3 CALLDATALOAD PUSH1 0x1 PUSH1 0x1 PUSH1 0x40 SHL SUB DUP2 GT ISZERO PUSH2 0x2BC6 JUMPI DUP3 DUP4 REVERT JUMPDEST DUP4 ADD PUSH1 0x1F DUP2 ADD DUP6 SGT PUSH2 0x2BD6 JUMPI DUP3 DUP4 REVERT JUMPDEST DUP1 CALLDATALOAD PUSH2 0x2BE4 PUSH2 0x297C DUP3 PUSH2 0x3028 JUMP JUMPDEST DUP1 DUP3 DUP3 MSTORE DUP5 DUP3 ADD SWAP2 POP DUP5 DUP5 ADD DUP9 DUP7 DUP6 PUSH1 0x5 SHL DUP8 ADD ADD GT ISZERO PUSH2 0x2C03 JUMPI DUP7 DUP8 REVERT JUMPDEST DUP7 SWAP5 POP JUMPDEST DUP4 DUP6 LT ISZERO PUSH2 0x2C2C JUMPI PUSH2 0x2C18 DUP2 PUSH2 0x2940 JUMP JUMPDEST DUP4 MSTORE PUSH1 0x1 SWAP5 SWAP1 SWAP5 ADD SWAP4 SWAP2 DUP6 ADD SWAP2 DUP6 ADD PUSH2 0x2C07 JUMP JUMPDEST POP SWAP8 SWAP7 POP POP POP POP POP POP POP JUMP JUMPDEST PUSH1 0x0 DUP1 PUSH1 0x0 PUSH1 0x60 DUP5 DUP7 SUB SLT ISZERO PUSH2 0x2C4C JUMPI DUP1 DUP2 REVERT JUMPDEST DUP4 CALLDATALOAD PUSH1 0x1 PUSH1 0x1 PUSH1 0x40 SHL SUB DUP1 DUP3 GT ISZERO PUSH2 0x2C62 JUMPI DUP3 DUP4 REVERT JUMPDEST PUSH2 0x2C6E DUP8 DUP4 DUP9 ADD PUSH2 0x295C JUMP JUMPDEST SWAP5 POP PUSH1 0x20 DUP7 ADD CALLDATALOAD SWAP4 POP PUSH1 0x40 DUP7 ADD CALLDATALOAD SWAP2 POP DUP1 DUP3 GT ISZERO PUSH2 0x2C8A JUMPI DUP3 DUP4 REVERT JUMPDEST POP PUSH2 0x2B95 DUP7 DUP3 DUP8 ADD PUSH2 0x295C JUMP JUMPDEST PUSH1 0x0 PUSH1 0x20 DUP3 DUP5 SUB SLT ISZERO PUSH2 0x2CA8 JUMPI DUP1 DUP2 REVERT JUMPDEST PUSH2 0x17CB DUP3 PUSH2 0x29CB JUMP JUMPDEST PUSH1 0x0 PUSH1 0x20 DUP3 DUP5 SUB SLT ISZERO PUSH2 0x2CC2 JUMPI DUP1 DUP2 REVERT JUMPDEST POP CALLDATALOAD SWAP2 SWAP1 POP JUMP JUMPDEST PUSH1 0x0 PUSH1 0x20 DUP3 DUP5 SUB SLT ISZERO PUSH2 0x2CDA JUMPI DUP1 DUP2 REVERT JUMPDEST POP MLOAD SWAP2 SWAP1 POP JUMP JUMPDEST PUSH1 0x0 PUSH1 0x20 DUP3 DUP5 SUB SLT ISZERO PUSH2 0x2CF2 JUMPI DUP1 DUP2 REVERT JUMPDEST DUP2 CALLDATALOAD PUSH2 0x17CB DUP2 PUSH2 0x3185 JUMP JUMPDEST PUSH1 0x0 PUSH1 0x20 DUP3 DUP5 SUB SLT ISZERO PUSH2 0x2D0E JUMPI DUP1 DUP2 REVERT JUMPDEST DUP2 MLOAD PUSH2 0x17CB DUP2 PUSH2 0x3185 JUMP JUMPDEST PUSH1 0x0 PUSH1 0x20 DUP3 DUP5 SUB SLT ISZERO PUSH2 0x2D2A JUMPI DUP1 DUP2 REVERT JUMPDEST DUP2 CALLDATALOAD PUSH1 0x1 PUSH1 0x1 PUSH1 0x40 SHL SUB DUP2 GT ISZERO PUSH2 0x2D3F JUMPI DUP2 DUP3 REVERT JUMPDEST PUSH2 0xDC7 DUP5 DUP3 DUP6 ADD PUSH2 0x29DB JUMP JUMPDEST PUSH1 0x0 DUP1 PUSH1 0x0 DUP1 PUSH1 0x0 PUSH1 0xA0 DUP7 DUP9 SUB SLT ISZERO PUSH2 0x2D62 JUMPI DUP3 DUP4 REVERT JUMPDEST DUP6 CALLDATALOAD SWAP5 POP PUSH1 0x20 DUP7 ADD CALLDATALOAD SWAP4 POP PUSH1 0x40 DUP7 ADD CALLDATALOAD PUSH1 0x1 PUSH1 0x1 PUSH1 0x40 SHL SUB DUP1 DUP3 GT ISZERO PUSH2 0x2D86 JUMPI DUP5 DUP6 REVERT JUMPDEST PUSH2 0x2D92 DUP10 DUP4 DUP11 ADD PUSH2 0x295C JUMP JUMPDEST SWAP5 POP PUSH1 0x60 DUP9 ADD CALLDATALOAD SWAP2 POP DUP1 DUP3 GT ISZERO PUSH2 0x2DA7 JUMPI DUP3 DUP4 REVERT JUMPDEST PUSH2 0x2DB3 DUP10 DUP4 DUP11 ADD PUSH2 0x295C JUMP JUMPDEST SWAP4 POP PUSH1 0x80 DUP9 ADD CALLDATALOAD SWAP2 POP DUP1 DUP3 GT ISZERO PUSH2 0x2DC8 JUMPI DUP3 DUP4 REVERT JUMPDEST POP PUSH2 0x2DD5 DUP9 DUP3 DUP10 ADD PUSH2 0x29DB JUMP JUMPDEST SWAP2 POP POP SWAP3 SWAP6 POP SWAP3 SWAP6 SWAP1 SWAP4 POP JUMP JUMPDEST PUSH1 0x0 DUP1 PUSH1 0x40 DUP4 DUP6 SUB SLT ISZERO PUSH2 0x2DF4 JUMPI DUP2 DUP3 REVERT JUMPDEST DUP3 CALLDATALOAD SWAP2 POP PUSH1 0x20 DUP4 ADD CALLDATALOAD PUSH1 0x1 PUSH1 0x1 PUSH1 0x40 SHL SUB DUP2 GT ISZERO PUSH2 0x2E10 JUMPI DUP2 DUP3 REVERT JUMPDEST PUSH2 0x2E1C DUP6 DUP3 DUP7 ADD PUSH2 0x29DB JUMP JUMPDEST SWAP2 POP POP SWAP3 POP SWAP3 SWAP1 POP JUMP JUMPDEST PUSH1 0x0 DUP2 MLOAD DUP1 DUP5 MSTORE PUSH2 0x2E3E DUP2 PUSH1 0x20 DUP7 ADD PUSH1 0x20 DUP7 ADD PUSH2 0x30AD JUMP JUMPDEST PUSH1 0x1F ADD PUSH1 0x1F NOT AND SWAP3 SWAP1 SWAP3 ADD PUSH1 0x20 ADD SWAP3 SWAP2 POP POP JUMP JUMPDEST PUSH1 0x0 DUP3 MLOAD PUSH2 0x2E64 DUP2 DUP5 PUSH1 0x20 DUP8 ADD PUSH2 0x30AD JUMP JUMPDEST SWAP2 SWAP1 SWAP2 ADD SWAP3 SWAP2 POP POP JUMP JUMPDEST PUSH1 0x0 DUP4 MLOAD PUSH2 0x2E80 DUP2 DUP5 PUSH1 0x20 DUP9 ADD PUSH2 0x30AD JUMP JUMPDEST DUP4 MLOAD SWAP1 DUP4 ADD SWAP1 PUSH2 0x2E94 DUP2 DUP4 PUSH1 0x20 DUP9 ADD PUSH2 0x30AD JUMP JUMPDEST PUSH5 0x173539B7B7 PUSH1 0xD9 SHL SWAP2 ADD SWAP1 DUP2 MSTORE PUSH1 0x5 ADD SWAP5 SWAP4 POP POP POP POP JUMP JUMPDEST PUSH1 0x0 DUP3 MLOAD PUSH2 0x2EBF DUP2 DUP5 PUSH1 0x20 DUP8 ADD PUSH2 0x30AD JUMP JUMPDEST PUSH22 0x31B7B73A3930B1BA16B6B2BA30B230BA30973539B7B7 PUSH1 0x51 SHL SWAP3 ADD SWAP2 DUP3 MSTORE POP PUSH1 0x16 ADD SWAP2 SWAP1 POP JUMP JUMPDEST PUSH1 0x1 PUSH1 0x1 PUSH1 0xA0 SHL SUB DUP6 DUP2 AND DUP3 MSTORE DUP5 AND PUSH1 0x20 DUP3 ADD MSTORE PUSH1 0x40 DUP2 ADD DUP4 SWAP1 MSTORE PUSH1 0x80 PUSH1 0x60 DUP3 ADD DUP2 SWAP1 MSTORE PUSH1 0x0 SWAP1 PUSH2 0x2F1A SWAP1 DUP4 ADD DUP5 PUSH2 0x2E26 JUMP JUMPDEST SWAP7 SWAP6 POP POP POP POP POP POP JUMP JUMPDEST PUSH1 0x20 DUP2 MSTORE PUSH1 0x0 PUSH2 0x17CB PUSH1 0x20 DUP4 ADD DUP5 PUSH2 0x2E26 JUMP JUMPDEST PUSH1 0x20 DUP1 DUP3 MSTORE PUSH1 0x2E SWAP1 DUP3 ADD MSTORE PUSH32 0x4E6F6E46756E6769626C65546F6B656E3A206D75737420686176652044454641 PUSH1 0x40 DUP3 ADD MSTORE PUSH14 0x554C545F41444D494E5F524F4C45 PUSH1 0x90 SHL PUSH1 0x60 DUP3 ADD MSTORE PUSH1 0x80 ADD SWAP1 JUMP JUMPDEST PUSH1 0x20 DUP1 DUP3 MSTORE PUSH1 0x13 SWAP1 DUP3 ADD MSTORE PUSH19 0x27B7363C9030B236B4B71037B91037BBB732B9 PUSH1 0x69 SHL PUSH1 0x40 DUP3 ADD MSTORE PUSH1 0x60 ADD SWAP1 JUMP JUMPDEST PUSH1 0x20 DUP1 DUP3 MSTORE PUSH1 0x26 SWAP1 DUP3 ADD MSTORE PUSH32 0x4E6F6E46756E6769626C65546F6B656E3A206D75737420686176652061646D69 PUSH1 0x40 DUP3 ADD MSTORE PUSH6 0x6E20726F6C65 PUSH1 0xD0 SHL PUSH1 0x60 DUP3 ADD MSTORE PUSH1 0x80 ADD SWAP1 JUMP JUMPDEST PUSH1 0x40 MLOAD PUSH1 0x1F DUP3 ADD PUSH1 0x1F NOT AND DUP2 ADD PUSH1 0x1 PUSH1 0x1 PUSH1 0x40 SHL SUB DUP2 GT DUP3 DUP3 LT OR ISZERO PUSH2 0x3020 JUMPI PUSH2 0x3020 PUSH2 0x316F JUMP JUMPDEST PUSH1 0x40 MSTORE SWAP2 SWAP1 POP JUMP JUMPDEST PUSH1 0x0 PUSH1 0x1 PUSH1 0x1 PUSH1 0x40 SHL SUB DUP3 GT ISZERO PUSH2 0x3041 JUMPI PUSH2 0x3041 PUSH2 0x316F JUMP JUMPDEST POP PUSH1 0x5 SHL PUSH1 0x20 ADD SWAP1 JUMP JUMPDEST PUSH1 0x0 DUP3 NOT DUP3 GT ISZERO PUSH2 0x305E JUMPI PUSH2 0x305E PUSH2 0x3143 JUMP JUMPDEST POP ADD SWAP1 JUMP JUMPDEST PUSH1 0x0 DUP3 PUSH2 0x3072 JUMPI PUSH2 0x3072 PUSH2 0x3159 JUMP JUMPDEST POP DIV SWAP1 JUMP JUMPDEST PUSH1 0x0 DUP2 PUSH1 0x0 NOT DIV DUP4 GT DUP3 ISZERO ISZERO AND ISZERO PUSH2 0x3091 JUMPI PUSH2 0x3091 PUSH2 0x3143 JUMP JUMPDEST POP MUL SWAP1 JUMP JUMPDEST PUSH1 0x0 DUP3 DUP3 LT ISZERO PUSH2 0x30A8 JUMPI PUSH2 0x30A8 PUSH2 0x3143 JUMP JUMPDEST POP SUB SWAP1 JUMP JUMPDEST PUSH1 0x0 JUMPDEST DUP4 DUP2 LT ISZERO PUSH2 0x30C8 JUMPI DUP2 DUP2 ADD MLOAD DUP4 DUP3 ADD MSTORE PUSH1 0x20 ADD PUSH2 0x30B0 JUMP JUMPDEST DUP4 DUP2 GT ISZERO PUSH2 0x1597 JUMPI POP POP PUSH1 0x0 SWAP2 ADD MSTORE JUMP JUMPDEST PUSH1 0x1 DUP2 DUP2 SHR SWAP1 DUP3 AND DUP1 PUSH2 0x30ED JUMPI PUSH1 0x7F DUP3 AND SWAP2 POP JUMPDEST PUSH1 0x20 DUP3 LT DUP2 EQ ISZERO PUSH2 0x310E JUMPI PUSH4 0x4E487B71 PUSH1 0xE0 SHL PUSH1 0x0 MSTORE PUSH1 0x22 PUSH1 0x4 MSTORE PUSH1 0x24 PUSH1 0x0 REVERT JUMPDEST POP SWAP2 SWAP1 POP JUMP JUMPDEST PUSH1 0x0 PUSH1 0x0 NOT DUP3 EQ ISZERO PUSH2 0x3128 JUMPI PUSH2 0x3128 PUSH2 0x3143 JUMP JUMPDEST POP PUSH1 0x1 ADD SWAP1 JUMP JUMPDEST PUSH1 0x0 DUP3 PUSH2 0x313E JUMPI PUSH2 0x313E PUSH2 0x3159 JUMP JUMPDEST POP MOD SWAP1 JUMP JUMPDEST PUSH4 0x4E487B71 PUSH1 0xE0 SHL PUSH1 0x0 MSTORE PUSH1 0x11 PUSH1 0x4 MSTORE PUSH1 0x24 PUSH1 0x0 REVERT JUMPDEST PUSH4 0x4E487B71 PUSH1 0xE0 SHL PUSH1 0x0 MSTORE PUSH1 0x12 PUSH1 0x4 MSTORE PUSH1 0x24 PUSH1 0x0 REVERT JUMPDEST PUSH4 0x4E487B71 PUSH1 0xE0 SHL PUSH1 0x0 MSTORE PUSH1 0x41 PUSH1 0x4 MSTORE PUSH1 0x24 PUSH1 0x0 REVERT JUMPDEST PUSH1 0x1 PUSH1 0x1 PUSH1 0xE0 SHL SUB NOT DUP2 AND DUP2 EQ PUSH2 0xD7B JUMPI PUSH1 0x0 DUP1 REVERT INVALID LOG2 PUSH5 0x6970667358 0x22 SLT KECCAK256 0xDF SWAP10 0xF 0xFB SHL ISZERO 0x4D BYTE SMOD LOG0 0xE4 0x4B 0xDC SWAP7 OR 0xDF 0xCC PUSH26 0xE54A47E3878B1D62DCA51FE7577764736F6C6343000804003300 "
		},
		"gasEstimates": {
			"creation": {
				"codeDepositCost": "2550600",
				"executionCost": "infinite",
				"totalCost": "infinite"
			},
			"external": {
				"admin()": "1169",
				"approve(address,uint256)": "infinite",
				"balanceOf(address)": "1440",
				"baseURI()": "infinite",
				"batchFreeMint(address[])": "infinite",
				"contractURI()": "infinite",
				"deploymentFee()": "1083",
				"freezeMetadata()": "1077",
				"fundsWallet()": "1149",
				"gasFrWhitelistingEnabled()": "1078",
				"getApproved(uint256)": "3059",
				"getMaxPerTransaction()": "1060",
				"getMaxPerWallet()": "1059",
				"getMaxToMint()": "1059",
				"getMintFee()": "1105",
				"ipfs(uint256)": "infinite",
				"isApprovedForAll(address,address)": "infinite",
				"mint(address,uint256,string)": "infinite",
				"mint(uint256,string)": "infinite",
				"mintGasFreeWhitelist(uint256,bytes32,bytes32[],uint256[],string)": "infinite",
				"mintingEnabled()": "1144",
				"name()": "infinite",
				"numberOfWhitelisted()": "1107",
				"onERC721Received(address,address,uint256,bytes)": "infinite",
				"owner()": "1099",
				"ownerOf(uint256)": "infinite",
				"paused()": "1105",
				"removeFromWhitelist(address[])": "infinite",
				"renounceOwnership()": "23483",
				"root()": "1061",
				"safeTransferFrom(address,address,uint256)": "infinite",
				"safeTransferFrom(address,address,uint256,bytes)": "infinite",
				"setAdmin(address)": "22985",
				"setApprovalForAll(address,bool)": "infinite",
				"setFreezeMetadata()": "23603",
				"setFundsWallet(address)": "22946",
				"setMaxPerTransaction(uint256)": "22039",
				"setMaxPerWallet(uint256)": "21976",
				"setMintNativeFee(uint256)": "22041",
				"setOwner(address)": "infinite",
				"setRoot(bytes32)": "22060",
				"setURI(string)": "infinite",
				"supportsInterface(bytes4)": "1443",
				"symbol()": "infinite",
				"toggleGasFrWhitelisting(bool)": "22936",
				"toggleMinting(bool)": "22918",
				"toggleWhitelisting(bool)": "22966",
				"tokenURI(uint256)": "infinite",
				"totalSales()": "1107",
				"totalSupply()": "1878",
				"transferFrom(address,address,uint256)": "infinite",
				"transferOwnership(address)": "23719",
				"verify(bytes32[],bytes32,uint256[])": "infinite",
				"whitelist(address[])": "infinite",
				"whitelistingEnabled()": "1089",
				"whitelists(address)": "1333"
			},
			"internal": {
				"_beforeTokenTransfer(address,address,uint256)": "infinite",
				"mintOperation(address,uint256,string memory)": "infinite"
			}
		},
		"methodIdentifiers": {
			"admin()": "f851a440",
			"approve(address,uint256)": "095ea7b3",
			"balanceOf(address)": "70a08231",
			"baseURI()": "6c0360eb",
			"batchFreeMint(address[])": "98eef4b7",
			"contractURI()": "e8a3d485",
			"deploymentFee()": "f2cff57f",
			"freezeMetadata()": "d111515d",
			"fundsWallet()": "2194f3a2",
			"gasFrWhitelistingEnabled()": "c28b8dbd",
			"getApproved(uint256)": "081812fc",
			"getMaxPerTransaction()": "20234ac7",
			"getMaxPerWallet()": "6bbc4291",
			"getMaxToMint()": "b7ed82b1",
			"getMintFee()": "7a5caab3",
			"ipfs(uint256)": "bf24c0de",
			"isApprovedForAll(address,address)": "e985e9c5",
			"mint(address,uint256,string)": "d3fc9864",
			"mint(uint256,string)": "77097fc8",
			"mintGasFreeWhitelist(uint256,bytes32,bytes32[],uint256[],string)": "4fdc45d9",
			"mintingEnabled()": "9fd6db12",
			"name()": "06fdde03",
			"numberOfWhitelisted()": "a92ba3c7",
			"onERC721Received(address,address,uint256,bytes)": "150b7a02",
			"owner()": "8da5cb5b",
			"ownerOf(uint256)": "6352211e",
			"paused()": "5c975abb",
			"removeFromWhitelist(address[])": "548db174",
			"renounceOwnership()": "715018a6",
			"root()": "ebf0c717",
			"safeTransferFrom(address,address,uint256)": "42842e0e",
			"safeTransferFrom(address,address,uint256,bytes)": "b88d4fde",
			"setAdmin(address)": "704b6c02",
			"setApprovalForAll(address,bool)": "a22cb465",
			"setFreezeMetadata()": "539d5c87",
			"setFundsWallet(address)": "64e39b87",
			"setMaxPerTransaction(uint256)": "ccfdd2f8",
			"setMaxPerWallet(uint256)": "e268e4d3",
			"setMintNativeFee(uint256)": "05e2b0c3",
			"setOwner(address)": "13af4035",
			"setRoot(bytes32)": "dab5f340",
			"setURI(string)": "02fe5305",
			"supportsInterface(bytes4)": "01ffc9a7",
			"symbol()": "95d89b41",
			"toggleGasFrWhitelisting(bool)": "a8958c70",
			"toggleMinting(bool)": "21775c92",
			"toggleWhitelisting(bool)": "6082adf8",
			"tokenURI(uint256)": "c87b56dd",
			"totalSales()": "6605ff66",
			"totalSupply()": "18160ddd",
			"transferFrom(address,address,uint256)": "23b872dd",
			"transferOwnership(address)": "f2fde38b",
			"verify(bytes32[],bytes32,uint256[])": "d68fb0ed",
			"whitelist(address[])": "bd8aa780",
			"whitelistingEnabled()": "5b0c29eb",
			"whitelists(address)": "1e7be210"
		}
	},
	"abi": [
		{
			"inputs": [
				{
					"internalType": "string",
					"name": "name",
					"type": "string"
				},
				{
					"internalType": "string",
					"name": "symbol",
					"type": "string"
				},
				{
					"internalType": "string",
					"name": "baseURI_",
					"type": "string"
				}
			],
			"stateMutability": "payable",
			"type": "constructor"
		},
		{
			"inputs": [],
			"name": "ApprovalCallerNotOwnerNorApproved",
			"type": "error"
		},
		{
			"inputs": [],
			"name": "ApprovalQueryForNonexistentToken",
			"type": "error"
		},
		{
			"inputs": [],
			"name": "ApprovalToCurrentOwner",
			"type": "error"
		},
		{
			"inputs": [],
			"name": "ApproveToCaller",
			"type": "error"
		},
		{
			"inputs": [],
			"name": "BalanceQueryForZeroAddress",
			"type": "error"
		},
		{
			"inputs": [],
			"name": "MintToZeroAddress",
			"type": "error"
		},
		{
			"inputs": [],
			"name": "MintZeroQuantity",
			"type": "error"
		},
		{
			"inputs": [],
			"name": "OwnerQueryForNonexistentToken",
			"type": "error"
		},
		{
			"inputs": [],
			"name": "TransferCallerNotOwnerNorApproved",
			"type": "error"
		},
		{
			"inputs": [],
			"name": "TransferFromIncorrectOwner",
			"type": "error"
		},
		{
			"inputs": [],
			"name": "TransferToNonERC721ReceiverImplementer",
			"type": "error"
		},
		{
			"inputs": [],
			"name": "TransferToZeroAddress",
			"type": "error"
		},
		{
			"inputs": [],
			"name": "URIQueryForNonexistentToken",
			"type": "error"
		},
		{
			"anonymous": false,
			"inputs": [
				{
					"indexed": true,
					"internalType": "address",
					"name": "owner",
					"type": "address"
				},
				{
					"indexed": true,
					"internalType": "address",
					"name": "approved",
					"type": "address"
				},
				{
					"indexed": true,
					"internalType": "uint256",
					"name": "tokenId",
					"type": "uint256"
				}
			],
			"name": "Approval",
			"type": "event"
		},
		{
			"anonymous": false,
			"inputs": [
				{
					"indexed": true,
					"internalType": "address",
					"name": "owner",
					"type": "address"
				},
				{
					"indexed": true,
					"internalType": "address",
					"name": "operator",
					"type": "address"
				},
				{
					"indexed": false,
					"internalType": "bool",
					"name": "approved",
					"type": "bool"
				}
			],
			"name": "ApprovalForAll",
			"type": "event"
		},
		{
			"anonymous": false,
			"inputs": [
				{
					"indexed": false,
					"internalType": "address",
					"name": "operator",
					"type": "address"
				},
				{
					"indexed": false,
					"internalType": "address",
					"name": "from",
					"type": "address"
				},
				{
					"indexed": false,
					"internalType": "uint256",
					"name": "tokenId",
					"type": "uint256"
				},
				{
					"indexed": false,
					"internalType": "bytes",
					"name": "data",
					"type": "bytes"
				}
			],
			"name": "ERC721Received",
			"type": "event"
		},
		{
			"anonymous": false,
			"inputs": [
				{
					"indexed": true,
					"internalType": "address",
					"name": "previousOwner",
					"type": "address"
				},
				{
					"indexed": true,
					"internalType": "address",
					"name": "newOwner",
					"type": "address"
				}
			],
			"name": "OwnershipTransferred",
			"type": "event"
		},
		{
			"anonymous": false,
			"inputs": [
				{
					"indexed": false,
					"internalType": "address",
					"name": "account",
					"type": "address"
				}
			],
			"name": "Paused",
			"type": "event"
		},
		{
			"anonymous": false,
			"inputs": [
				{
					"indexed": true,
					"internalType": "address",
					"name": "from",
					"type": "address"
				},
				{
					"indexed": true,
					"internalType": "address",
					"name": "to",
					"type": "address"
				},
				{
					"indexed": true,
					"internalType": "uint256",
					"name": "tokenId",
					"type": "uint256"
				}
			],
			"name": "Transfer",
			"type": "event"
		},
		{
			"anonymous": false,
			"inputs": [
				{
					"indexed": false,
					"internalType": "address",
					"name": "account",
					"type": "address"
				}
			],
			"name": "Unpaused",
			"type": "event"
		},
		{
			"inputs": [],
			"name": "admin",
			"outputs": [
				{
					"internalType": "address payable",
					"name": "",
					"type": "address"
				}
			],
			"stateMutability": "view",
			"type": "function"
		},
		{
			"inputs": [
				{
					"internalType": "address",
					"name": "to",
					"type": "address"
				},
				{
					"internalType": "uint256",
					"name": "tokenId",
					"type": "uint256"
				}
			],
			"name": "approve",
			"outputs": [],
			"stateMutability": "nonpayable",
			"type": "function"
		},
		{
			"inputs": [
				{
					"internalType": "address",
					"name": "owner",
					"type": "address"
				}
			],
			"name": "balanceOf",
			"outputs": [
				{
					"internalType": "uint256",
					"name": "",
					"type": "uint256"
				}
			],
			"stateMutability": "view",
			"type": "function"
		},
		{
			"inputs": [],
			"name": "baseURI",
			"outputs": [
				{
					"internalType": "string",
					"name": "",
					"type": "string"
				}
			],
			"stateMutability": "view",
			"type": "function"
		},
		{
			"inputs": [
				{
					"internalType": "address[]",
					"name": "_beneficiaries",
					"type": "address[]"
				}
			],
			"name": "batchFreeMint",
			"outputs": [],
			"stateMutability": "nonpayable",
			"type": "function"
		},
		{
			"inputs": [],
			"name": "contractURI",
			"outputs": [
				{
					"internalType": "string",
					"name": "",
					"type": "string"
				}
			],
			"stateMutability": "view",
			"type": "function"
		},
		{
			"inputs": [],
			"name": "deploymentFee",
			"outputs": [
				{
					"internalType": "uint256",
					"name": "",
					"type": "uint256"
				}
			],
			"stateMutability": "view",
			"type": "function"
		},
		{
			"inputs": [],
			"name": "freezeMetadata",
			"outputs": [
				{
					"internalType": "bool",
					"name": "",
					"type": "bool"
				}
			],
			"stateMutability": "view",
			"type": "function"
		},
		{
			"inputs": [],
			"name": "fundsWallet",
			"outputs": [
				{
					"internalType": "address payable",
					"name": "",
					"type": "address"
				}
			],
			"stateMutability": "view",
			"type": "function"
		},
		{
			"inputs": [],
			"name": "gasFrWhitelistingEnabled",
			"outputs": [
				{
					"internalType": "bool",
					"name": "",
					"type": "bool"
				}
			],
			"stateMutability": "view",
			"type": "function"
		},
		{
			"inputs": [
				{
					"internalType": "uint256",
					"name": "tokenId",
					"type": "uint256"
				}
			],
			"name": "getApproved",
			"outputs": [
				{
					"internalType": "address",
					"name": "",
					"type": "address"
				}
			],
			"stateMutability": "view",
			"type": "function"
		},
		{
			"inputs": [],
			"name": "getMaxPerTransaction",
			"outputs": [
				{
					"internalType": "uint256",
					"name": "",
					"type": "uint256"
				}
			],
			"stateMutability": "view",
			"type": "function"
		},
		{
			"inputs": [],
			"name": "getMaxPerWallet",
			"outputs": [
				{
					"internalType": "uint256",
					"name": "",
					"type": "uint256"
				}
			],
			"stateMutability": "view",
			"type": "function"
		},
		{
			"inputs": [],
			"name": "getMaxToMint",
			"outputs": [
				{
					"internalType": "uint256",
					"name": "",
					"type": "uint256"
				}
			],
			"stateMutability": "view",
			"type": "function"
		},
		{
			"inputs": [],
			"name": "getMintFee",
			"outputs": [
				{
					"internalType": "uint256",
					"name": "",
					"type": "uint256"
				}
			],
			"stateMutability": "view",
			"type": "function"
		},
		{
			"inputs": [
				{
					"internalType": "uint256",
					"name": "",
					"type": "uint256"
				}
			],
			"name": "ipfs",
			"outputs": [
				{
					"internalType": "string",
					"name": "",
					"type": "string"
				}
			],
			"stateMutability": "view",
			"type": "function"
		},
		{
			"inputs": [
				{
					"internalType": "address",
					"name": "owner",
					"type": "address"
				},
				{
					"internalType": "address",
					"name": "operator",
					"type": "address"
				}
			],
			"name": "isApprovedForAll",
			"outputs": [
				{
					"internalType": "bool",
					"name": "",
					"type": "bool"
				}
			],
			"stateMutability": "view",
			"type": "function"
		},
		{
			"inputs": [
				{
					"internalType": "uint256",
					"name": "count",
					"type": "uint256"
				},
				{
					"internalType": "string",
					"name": "ipfsId",
					"type": "string"
				}
			],
			"name": "mint",
			"outputs": [],
			"stateMutability": "payable",
			"type": "function"
		},
		{
			"inputs": [
				{
					"internalType": "address",
					"name": "to",
					"type": "address"
				},
				{
					"internalType": "uint256",
					"name": "count",
					"type": "uint256"
				},
				{
					"internalType": "string",
					"name": "ipfsId",
					"type": "string"
				}
			],
			"name": "mint",
			"outputs": [],
			"stateMutability": "payable",
			"type": "function"
		},
		{
			"inputs": [
				{
					"internalType": "uint256",
					"name": "count",
					"type": "uint256"
				},
				{
					"internalType": "bytes32",
					"name": "leaf",
					"type": "bytes32"
				},
				{
					"internalType": "bytes32[]",
					"name": "_proof",
					"type": "bytes32[]"
				},
				{
					"internalType": "uint256[]",
					"name": "positions",
					"type": "uint256[]"
				},
				{
					"internalType": "string",
					"name": "ipfsId",
					"type": "string"
				}
			],
			"name": "mintGasFreeWhitelist",
			"outputs": [],
			"stateMutability": "payable",
			"type": "function"
		},
		{
			"inputs": [],
			"name": "mintingEnabled",
			"outputs": [
				{
					"internalType": "bool",
					"name": "",
					"type": "bool"
				}
			],
			"stateMutability": "view",
			"type": "function"
		},
		{
			"inputs": [],
			"name": "name",
			"outputs": [
				{
					"internalType": "string",
					"name": "",
					"type": "string"
				}
			],
			"stateMutability": "view",
			"type": "function"
		},
		{
			"inputs": [],
			"name": "numberOfWhitelisted",
			"outputs": [
				{
					"internalType": "uint256",
					"name": "",
					"type": "uint256"
				}
			],
			"stateMutability": "view",
			"type": "function"
		},
		{
			"inputs": [
				{
					"internalType": "address",
					"name": "operator",
					"type": "address"
				},
				{
					"internalType": "address",
					"name": "from",
					"type": "address"
				},
				{
					"internalType": "uint256",
					"name": "tokenId",
					"type": "uint256"
				},
				{
					"internalType": "bytes",
					"name": "data",
					"type": "bytes"
				}
			],
			"name": "onERC721Received",
			"outputs": [
				{
					"internalType": "bytes4",
					"name": "",
					"type": "bytes4"
				}
			],
			"stateMutability": "nonpayable",
			"type": "function"
		},
		{
			"inputs": [],
			"name": "owner",
			"outputs": [
				{
					"internalType": "address",
					"name": "",
					"type": "address"
				}
			],
			"stateMutability": "view",
			"type": "function"
		},
		{
			"inputs": [
				{
					"internalType": "uint256",
					"name": "tokenId",
					"type": "uint256"
				}
			],
			"name": "ownerOf",
			"outputs": [
				{
					"internalType": "address",
					"name": "",
					"type": "address"
				}
			],
			"stateMutability": "view",
			"type": "function"
		},
		{
			"inputs": [],
			"name": "paused",
			"outputs": [
				{
					"internalType": "bool",
					"name": "",
					"type": "bool"
				}
			],
			"stateMutability": "view",
			"type": "function"
		},
		{
			"inputs": [
				{
					"internalType": "address[]",
					"name": "_beneficiaries",
					"type": "address[]"
				}
			],
			"name": "removeFromWhitelist",
			"outputs": [],
			"stateMutability": "nonpayable",
			"type": "function"
		},
		{
			"inputs": [],
			"name": "renounceOwnership",
			"outputs": [],
			"stateMutability": "nonpayable",
			"type": "function"
		},
		{
			"inputs": [],
			"name": "root",
			"outputs": [
				{
					"internalType": "bytes32",
					"name": "",
					"type": "bytes32"
				}
			],
			"stateMutability": "view",
			"type": "function"
		},
		{
			"inputs": [
				{
					"internalType": "address",
					"name": "from",
					"type": "address"
				},
				{
					"internalType": "address",
					"name": "to",
					"type": "address"
				},
				{
					"internalType": "uint256",
					"name": "tokenId",
					"type": "uint256"
				}
			],
			"name": "safeTransferFrom",
			"outputs": [],
			"stateMutability": "nonpayable",
			"type": "function"
		},
		{
			"inputs": [
				{
					"internalType": "address",
					"name": "from",
					"type": "address"
				},
				{
					"internalType": "address",
					"name": "to",
					"type": "address"
				},
				{
					"internalType": "uint256",
					"name": "tokenId",
					"type": "uint256"
				},
				{
					"internalType": "bytes",
					"name": "_data",
					"type": "bytes"
				}
			],
			"name": "safeTransferFrom",
			"outputs": [],
			"stateMutability": "nonpayable",
			"type": "function"
		},
		{
			"inputs": [
				{
					"internalType": "address",
					"name": "_admin",
					"type": "address"
				}
			],
			"name": "setAdmin",
			"outputs": [],
			"stateMutability": "nonpayable",
			"type": "function"
		},
		{
			"inputs": [
				{
					"internalType": "address",
					"name": "operator",
					"type": "address"
				},
				{
					"internalType": "bool",
					"name": "approved",
					"type": "bool"
				}
			],
			"name": "setApprovalForAll",
			"outputs": [],
			"stateMutability": "nonpayable",
			"type": "function"
		},
		{
			"inputs": [],
			"name": "setFreezeMetadata",
			"outputs": [],
			"stateMutability": "nonpayable",
			"type": "function"
		},
		{
			"inputs": [
				{
					"internalType": "address",
					"name": "_wallet",
					"type": "address"
				}
			],
			"name": "setFundsWallet",
			"outputs": [],
			"stateMutability": "nonpayable",
			"type": "function"
		},
		{
			"inputs": [
				{
					"internalType": "uint256",
					"name": "_max",
					"type": "uint256"
				}
			],
			"name": "setMaxPerTransaction",
			"outputs": [],
			"stateMutability": "nonpayable",
			"type": "function"
		},
		{
			"inputs": [
				{
					"internalType": "uint256",
					"name": "maxPerWallet",
					"type": "uint256"
				}
			],
			"name": "setMaxPerWallet",
			"outputs": [],
			"stateMutability": "nonpayable",
			"type": "function"
		},
		{
			"inputs": [
				{
					"internalType": "uint256",
					"name": "mintFee",
					"type": "uint256"
				}
			],
			"name": "setMintNativeFee",
			"outputs": [],
			"stateMutability": "nonpayable",
			"type": "function"
		},
		{
			"inputs": [
				{
					"internalType": "address",
					"name": "_owner",
					"type": "address"
				}
			],
			"name": "setOwner",
			"outputs": [],
			"stateMutability": "nonpayable",
			"type": "function"
		},
		{
			"inputs": [
				{
					"internalType": "bytes32",
					"name": "_root",
					"type": "bytes32"
				}
			],
			"name": "setRoot",
			"outputs": [],
			"stateMutability": "nonpayable",
			"type": "function"
		},
		{
			"inputs": [
				{
					"internalType": "string",
					"name": "_baseURI",
					"type": "string"
				}
			],
			"name": "setURI",
			"outputs": [],
			"stateMutability": "nonpayable",
			"type": "function"
		},
		{
			"inputs": [
				{
					"internalType": "bytes4",
					"name": "interfaceId",
					"type": "bytes4"
				}
			],
			"name": "supportsInterface",
			"outputs": [
				{
					"internalType": "bool",
					"name": "",
					"type": "bool"
				}
			],
			"stateMutability": "view",
			"type": "function"
		},
		{
			"inputs": [],
			"name": "symbol",
			"outputs": [
				{
					"internalType": "string",
					"name": "",
					"type": "string"
				}
			],
			"stateMutability": "view",
			"type": "function"
		},
		{
			"inputs": [
				{
					"internalType": "bool",
					"name": "_toggle",
					"type": "bool"
				}
			],
			"name": "toggleGasFrWhitelisting",
			"outputs": [],
			"stateMutability": "nonpayable",
			"type": "function"
		},
		{
			"inputs": [
				{
					"internalType": "bool",
					"name": "_bool",
					"type": "bool"
				}
			],
			"name": "toggleMinting",
			"outputs": [],
			"stateMutability": "nonpayable",
			"type": "function"
		},
		{
			"inputs": [
				{
					"internalType": "bool",
					"name": "_toggle",
					"type": "bool"
				}
			],
			"name": "toggleWhitelisting",
			"outputs": [],
			"stateMutability": "nonpayable",
			"type": "function"
		},
		{
			"inputs": [
				{
					"internalType": "uint256",
					"name": "tokenId",
					"type": "uint256"
				}
			],
			"name": "tokenURI",
			"outputs": [
				{
					"internalType": "string",
					"name": "",
					"type": "string"
				}
			],
			"stateMutability": "view",
			"type": "function"
		},
		{
			"inputs": [],
			"name": "totalSales",
			"outputs": [
				{
					"internalType": "uint256",
					"name": "",
					"type": "uint256"
				}
			],
			"stateMutability": "view",
			"type": "function"
		},
		{
			"inputs": [],
			"name": "totalSupply",
			"outputs": [
				{
					"internalType": "uint256",
					"name": "",
					"type": "uint256"
				}
			],
			"stateMutability": "view",
			"type": "function"
		},
		{
			"inputs": [
				{
					"internalType": "address",
					"name": "from",
					"type": "address"
				},
				{
					"internalType": "address",
					"name": "to",
					"type": "address"
				},
				{
					"internalType": "uint256",
					"name": "tokenId",
					"type": "uint256"
				}
			],
			"name": "transferFrom",
			"outputs": [],
			"stateMutability": "nonpayable",
			"type": "function"
		},
		{
			"inputs": [
				{
					"internalType": "address",
					"name": "newOwner",
					"type": "address"
				}
			],
			"name": "transferOwnership",
			"outputs": [],
			"stateMutability": "nonpayable",
			"type": "function"
		},
		{
			"inputs": [
				{
					"internalType": "bytes32[]",
					"name": "proof",
					"type": "bytes32[]"
				},
				{
					"internalType": "bytes32",
					"name": "leaf",
					"type": "bytes32"
				},
				{
					"internalType": "uint256[]",
					"name": "positions",
					"type": "uint256[]"
				}
			],
			"name": "verify",
			"outputs": [
				{
					"internalType": "bool",
					"name": "",
					"type": "bool"
				}
			],
			"stateMutability": "view",
			"type": "function"
		},
		{
			"inputs": [
				{
					"internalType": "address[]",
					"name": "_beneficiaries",
					"type": "address[]"
				}
			],
			"name": "whitelist",
			"outputs": [],
			"stateMutability": "nonpayable",
			"type": "function"
		},
		{
			"inputs": [],
			"name": "whitelistingEnabled",
			"outputs": [
				{
					"internalType": "bool",
					"name": "",
					"type": "bool"
				}
			],
			"stateMutability": "view",
			"type": "function"
		},
		{
			"inputs": [
				{
					"internalType": "address",
					"name": "",
					"type": "address"
				}
			],
			"name": "whitelists",
			"outputs": [
				{
					"internalType": "bool",
					"name": "",
					"type": "bool"
				}
			],
			"stateMutability": "view",
			"type": "function"
		}
	]
}